{
    "contractName": "KittyInterface",
    "abi": [
        {
            "inputs": [
                {
                    "internalType": "uint256",
                    "name": "_id",
                    "type": "uint256"
                }
            ],
            "name": "getKitty",
            "outputs": [
                {
                    "internalType": "bool",
                    "name": "isGestating",
                    "type": "bool"
                },
                {
                    "internalType": "bool",
                    "name": "isReady",
                    "type": "bool"
                },
                {
                    "internalType": "uint256",
                    "name": "cooldownIndex",
                    "type": "uint256"
                },
                {
                    "internalType": "uint256",
                    "name": "nextActionAt",
                    "type": "uint256"
                },
                {
                    "internalType": "uint256",
                    "name": "siringWithId",
                    "type": "uint256"
                },
                {
                    "internalType": "uint256",
                    "name": "birthTime",
                    "type": "uint256"
                },
                {
                    "internalType": "uint256",
                    "name": "matronId",
                    "type": "uint256"
                },
                {
                    "internalType": "uint256",
                    "name": "sireId",
                    "type": "uint256"
                },
                {
                    "internalType": "uint256",
                    "name": "generation",
                    "type": "uint256"
                },
                {
                    "internalType": "uint256",
                    "name": "genes",
                    "type": "uint256"
                }
            ],
            "stateMutability": "view",
            "type": "function"
        }
    ],
    "bytecode": "608060405234801561001057600080fd5b50610109806100206000396000f3fe6080604052348015600f57600080fd5b506004361060285760003560e01c8063e98b7f4d14602d575b600080fd5b603c60383660046075565b6059565b60405160509a99989796959493929190608c565b60405180910390f35b6000806000806000806000806000809193959799509193959799565b6000602082840312156085578081fd5b5035919050565b9915158a5297151560208a015260408901969096526060880194909452608087019290925260a086015260c085015260e0840152610100830152610120820152610140019056fea26469706673582212207a805ff103303e438842f9e3669a784001be35bcab154b3d06e7d975b907dc9864736f6c63430008000033",
    "sourcePath": "d:/VSCode/Project/cryptoZombies_smart_contract/contracts/zombieFeeding.sol",
    "compiler": {
        "name": "solc",
        "version": "0.8.0+commit.c7dfd78e"
    },
    "functionHashes": {
        "getKitty(uint256)": "e98b7f4d"
    },
    "gasEstimates": {
        "creation": {
            "codeDepositCost": "53000",
            "executionCost": "105",
            "totalCost": "53105"
        },
        "external": {
            "getKitty(uint256)": "543"
        }
    }
}