{
    "contractName": "Ownable",
    "abi": [
        {
            "anonymous": false,
            "inputs": [
                {
                    "indexed": true,
                    "internalType": "address",
                    "name": "previousOwner",
                    "type": "address"
                },
                {
                    "indexed": true,
                    "internalType": "address",
                    "name": "newOwner",
                    "type": "address"
                }
            ],
            "name": "OwnershipTransferred",
            "type": "event"
        },
        {
            "inputs": [],
            "name": "ownable",
            "outputs": [],
            "stateMutability": "nonpayable",
            "type": "function"
        },
        {
            "inputs": [],
            "name": "owner",
            "outputs": [
                {
                    "internalType": "address",
                    "name": "",
                    "type": "address"
                }
            ],
            "stateMutability": "view",
            "type": "function"
        },
        {
            "inputs": [
                {
                    "internalType": "address",
                    "name": "newOwner",
                    "type": "address"
                }
            ],
            "name": "transferOwnership",
            "outputs": [],
            "stateMutability": "nonpayable",
            "type": "function"
        }
    ],
    "bytecode": "608060405234801561001057600080fd5b506101a1806100206000396000f3fe608060405234801561001057600080fd5b50600436106100415760003560e01c80638da5cb5b14610046578063b38854be14610064578063f2fde38b1461006e575b600080fd5b61004e610081565b60405161005b9190610157565b60405180910390f35b61006c610090565b005b61006c61007c366004610129565b6100a4565b6000546001600160a01b031681565b600080546001600160a01b03191633179055565b6000546001600160a01b031633146100bb57600080fd5b6001600160a01b0381166100ce57600080fd5b600080546040516001600160a01b03808516939216917f8be0079c531659141344cd1fd0a4f28419497f9722a3daafe3b4186f6b6457e091a3600080546001600160a01b0319166001600160a01b0392909216919091179055565b60006020828403121561013a578081fd5b81356001600160a01b0381168114610150578182fd5b9392505050565b6001600160a01b039190911681526020019056fea264697066735822122034eee617eedcec87cda192e28d1b1002bbe49fc8c56f35714424042b7fe95d8b64736f6c63430008000033",
    "sourcePath": "d:/VSCode/Project/cryptoZombies_smart_contract/contracts/ownable.sol",
    "compiler": {
        "name": "solc",
        "version": "0.8.0+commit.c7dfd78e"
    },
    "functionHashes": {
        "ownable()": "b38854be",
        "owner()": "8da5cb5b",
        "transferOwnership(address)": "f2fde38b"
    },
    "gasEstimates": {
        "creation": {
            "codeDepositCost": "83400",
            "executionCost": "135",
            "totalCost": "83535"
        },
        "external": {
            "ownable()": "20979",
            "owner()": "1048",
            "transferOwnership(address)": "24387"
        }
    }
}