{
    "contractName": "ZombieAttack",
    "abi": [
        {
            "anonymous": false,
            "inputs": [
                {
                    "indexed": false,
                    "internalType": "uint256",
                    "name": "zombieId",
                    "type": "uint256"
                },
                {
                    "indexed": false,
                    "internalType": "string",
                    "name": "name",
                    "type": "string"
                },
                {
                    "indexed": false,
                    "internalType": "uint256",
                    "name": "dna",
                    "type": "uint256"
                }
            ],
            "name": "NewZombie",
            "type": "event"
        },
        {
            "anonymous": false,
            "inputs": [
                {
                    "indexed": true,
                    "internalType": "address",
                    "name": "previousOwner",
                    "type": "address"
                },
                {
                    "indexed": true,
                    "internalType": "address",
                    "name": "newOwner",
                    "type": "address"
                }
            ],
            "name": "OwnershipTransferred",
            "type": "event"
        },
        {
            "inputs": [
                {
                    "internalType": "uint256",
                    "name": "_zombieId",
                    "type": "uint256"
                },
                {
                    "internalType": "uint256",
                    "name": "_targetId",
                    "type": "uint256"
                }
            ],
            "name": "attack",
            "outputs": [],
            "stateMutability": "nonpayable",
            "type": "function"
        },
        {
            "inputs": [
                {
                    "internalType": "uint256",
                    "name": "_zombieId",
                    "type": "uint256"
                },
                {
                    "internalType": "uint256",
                    "name": "_newDna",
                    "type": "uint256"
                }
            ],
            "name": "changeDna",
            "outputs": [],
            "stateMutability": "nonpayable",
            "type": "function"
        },
        {
            "inputs": [
                {
                    "internalType": "uint256",
                    "name": "_zombieId",
                    "type": "uint256"
                },
                {
                    "internalType": "string",
                    "name": "_newName",
                    "type": "string"
                }
            ],
            "name": "changeName",
            "outputs": [],
            "stateMutability": "nonpayable",
            "type": "function"
        },
        {
            "inputs": [
                {
                    "internalType": "string",
                    "name": "_name",
                    "type": "string"
                }
            ],
            "name": "createRandomZombie",
            "outputs": [],
            "stateMutability": "nonpayable",
            "type": "function"
        },
        {
            "inputs": [
                {
                    "internalType": "uint256",
                    "name": "_zombieId",
                    "type": "uint256"
                },
                {
                    "internalType": "uint256",
                    "name": "_kittyId",
                    "type": "uint256"
                }
            ],
            "name": "feedOnKitty",
            "outputs": [],
            "stateMutability": "nonpayable",
            "type": "function"
        },
        {
            "inputs": [
                {
                    "internalType": "address",
                    "name": "_owner",
                    "type": "address"
                }
            ],
            "name": "getZombiesByOwner",
            "outputs": [
                {
                    "internalType": "uint256[]",
                    "name": "",
                    "type": "uint256[]"
                }
            ],
            "stateMutability": "view",
            "type": "function"
        },
        {
            "inputs": [
                {
                    "internalType": "uint256",
                    "name": "_zombieId",
                    "type": "uint256"
                }
            ],
            "name": "levelUp",
            "outputs": [],
            "stateMutability": "payable",
            "type": "function"
        },
        {
            "inputs": [],
            "name": "ownable",
            "outputs": [],
            "stateMutability": "nonpayable",
            "type": "function"
        },
        {
            "inputs": [],
            "name": "owner",
            "outputs": [
                {
                    "internalType": "address",
                    "name": "",
                    "type": "address"
                }
            ],
            "stateMutability": "view",
            "type": "function"
        },
        {
            "inputs": [
                {
                    "internalType": "address",
                    "name": "_address",
                    "type": "address"
                }
            ],
            "name": "setKittyContractAddress",
            "outputs": [],
            "stateMutability": "nonpayable",
            "type": "function"
        },
        {
            "inputs": [
                {
                    "internalType": "uint256",
                    "name": "_fee",
                    "type": "uint256"
                }
            ],
            "name": "setLevelUpFee",
            "outputs": [],
            "stateMutability": "nonpayable",
            "type": "function"
        },
        {
            "inputs": [
                {
                    "internalType": "address",
                    "name": "newOwner",
                    "type": "address"
                }
            ],
            "name": "transferOwnership",
            "outputs": [],
            "stateMutability": "nonpayable",
            "type": "function"
        },
        {
            "inputs": [],
            "name": "withdraw",
            "outputs": [],
            "stateMutability": "nonpayable",
            "type": "function"
        },
        {
            "inputs": [
                {
                    "internalType": "uint256",
                    "name": "",
                    "type": "uint256"
                }
            ],
            "name": "zombieToOwner",
            "outputs": [
                {
                    "internalType": "address",
                    "name": "",
                    "type": "address"
                }
            ],
            "stateMutability": "view",
            "type": "function"
        },
        {
            "inputs": [
                {
                    "internalType": "uint256",
                    "name": "",
                    "type": "uint256"
                }
            ],
            "name": "zombies",
            "outputs": [
                {
                    "internalType": "string",
                    "name": "name",
                    "type": "string"
                },
                {
                    "internalType": "uint256",
                    "name": "dna",
                    "type": "uint256"
                },
                {
                    "internalType": "uint32",
                    "name": "level",
                    "type": "uint32"
                },
                {
                    "internalType": "uint32",
                    "name": "readyTime",
                    "type": "uint32"
                },
                {
                    "internalType": "uint16",
                    "name": "winCount",
                    "type": "uint16"
                },
                {
                    "internalType": "uint16",
                    "name": "lossCount",
                    "type": "uint16"
                }
            ],
            "stateMutability": "view",
            "type": "function"
        }
    ],
    "bytecode": "6080604052601060018190556200001890600a62000098565b6002556201518060035566038d7ea4c6800060085560006009556046600a553480156200004457600080fd5b50620001a3565b80825b60018086116200005f57506200008f565b8187048211156200007457620000746200018d565b808616156200008257918102915b9490941c9380026200004e565b94509492505050565b6000620000a96000198484620000b0565b9392505050565b600082620000c157506001620000a9565b81620000d057506000620000a9565b8160018114620000e95760028114620000f45762000128565b6001915050620000a9565b60ff8411156200010857620001086200018d565b6001841b9150848211156200012157620001216200018d565b50620000a9565b5060208310610133831016604e8410600b841016171562000160575081810a838111156200015a576200015a6200018d565b620000a9565b6200016f84848460016200004b565b8086048211156200018457620001846200018d565b02949350505050565b634e487b7160e01b600052601160045260246000fd5b6114e780620001b36000396000f3fe6080604052600436106100e85760003560e01c80635faf28801161008a578063c39cbef111610059578063c39cbef114610256578063ccf670f814610276578063e1fa763814610296578063f2fde38b146102b6576100e8565b80635faf2880146101ec5780637bff0a011461020c5780638da5cb5b1461022c578063b38854be14610241576100e8565b80633ccfd60b116100c65780633ccfd60b1461015d5780634412e10414610172578063528b7b8f1461019f5780635f4623f1146101cc576100e8565b80630ce90ec2146100ed57806317a7f4cc146101025780632052465e14610122575b600080fd5b6101006100fb366004611166565b6102d6565b005b34801561010e57600080fd5b5061010061011d3660046111c3565b61034b565b34801561012e57600080fd5b5061014261013d366004611166565b610409565b604051610154969594939291906112ac565b60405180910390f35b34801561016957600080fd5b506101006104f3565b34801561017e57600080fd5b5061019261018d366004611083565b610547565b6040516101549190611268565b3480156101ab57600080fd5b506101bf6101ba366004611166565b61063d565b6040516101549190611254565b3480156101d857600080fd5b506101006101e7366004611083565b610658565b3480156101f857600080fd5b506101006102073660046111c3565b610691565b34801561021857600080fd5b5061010061022736600461112b565b61073e565b34801561023857600080fd5b506101bf61078a565b34801561024d57600080fd5b50610100610799565b34801561026257600080fd5b5061010061027136600461117e565b6107ad565b34801561028257600080fd5b50610100610291366004611166565b61086a565b3480156102a257600080fd5b506101006102b13660046111c3565b610886565b3480156102c257600080fd5b506101006102d1366004611083565b610a7b565b60085434146102e457600080fd5b6004818154811061030557634e487b7160e01b600052603260045260246000fd5b600091825260208220600260039092020101805463ffffffff169161032983611437565b91906101000a81548163ffffffff021916908363ffffffff1602179055505050565b60075460405163e98b7f4d60e01b81526000916001600160a01b03169063e98b7f4d9061037c9085906004016112f7565b6101406040518083038186803b15801561039557600080fd5b505afa1580156103a9573d6000803e3d6000fd5b505050506040513d601f19601f820116820180604052508101906103cd91906110aa565b6040805180820190915260058152646b6974747960d81b6020820152909a5061040499508c98508a97509550610b00945050505050565b505050565b6004818154811061041957600080fd5b906000526020600020906003020160009150905080600001805461043c906113e1565b80601f0160208091040260200160405190810160405280929190818152602001828054610468906113e1565b80156104b55780601f1061048a576101008083540402835291602001916104b5565b820191906000526020600020905b81548152906001019060200180831161049857829003601f168201915b505050600184015460029094015492939263ffffffff8082169350640100000000820416915061ffff600160401b8204811691600160501b90041686565b6000546001600160a01b0316331461050a57600080fd5b600080546040516001600160a01b03909116914780156108fc02929091818181858888f19350505050158015610544573d6000803e3d6000fd5b50565b6001600160a01b0381166000908152600660205260408120546060919067ffffffffffffffff81111561058a57634e487b7160e01b600052604160045260246000fd5b6040519080825280602002602001820160405280156105b3578160200160208202803683370190505b5090506000805b600454811015610632576000818152600560205260409020546001600160a01b0386811691161415610620578083838151811061060757634e487b7160e01b600052603260045260246000fd5b60209081029190910101528161061c8161141c565b9250505b8061062a8161141c565b9150506105ba565b50909150505b919050565b6005602052600090815260409020546001600160a01b031681565b6000546001600160a01b0316331461066f57600080fd5b600780546001600160a01b0319166001600160a01b0392909216919091179055565b60148281600482815481106106b657634e487b7160e01b600052603260045260246000fd5b600091825260209091206002600390920201015463ffffffff1610156106db57600080fd5b60008481526005602052604090205484906001600160a01b0316331461070057600080fd5b836004868154811061072257634e487b7160e01b600052603260045260246000fd5b9060005260206000209060030201600101819055505050505050565b336000908152600660205260409020541561075857600080fd5b600061076382610c3b565b905061077060648261145b565b61077a908261139a565b90506107868282610c7f565b5050565b6000546001600160a01b031681565b600080546001600160a01b03191633179055565b60028281600482815481106107d257634e487b7160e01b600052603260045260246000fd5b600091825260209091206002600390920201015463ffffffff1610156107f757600080fd5b60008481526005602052604090205484906001600160a01b0316331461081c57600080fd5b836004868154811061083e57634e487b7160e01b600052603260045260246000fd5b90600052602060002090600302016000019080519060200190610862929190610f59565b505050505050565b6000546001600160a01b0316331461088157600080fd5b600855565b60008281526005602052604090205482906001600160a01b031633146108ab57600080fd5b6000600484815481106108ce57634e487b7160e01b600052603260045260246000fd5b9060005260206000209060030201905060006004848154811061090157634e487b7160e01b600052603260045260246000fd5b90600052602060002090600302019050600061091d6064610e1f565b9050600a548111610a0457600283015461094390600160401b900461ffff166001610e73565b60028401805461ffff92909216600160401b0261ffff60401b19909216919091179081905561097e9063ffffffff90811690600190610ea816565b6002848101805463ffffffff191663ffffffff9384161790558301546109b491600160501b90910461ffff1690600190610e7316565b82600201600a6101000a81548161ffff021916908361ffff1602179055506109ff868360010154604051806040016040528060068152602001657a6f6d62696560d01b815250610b00565b610862565b6002830154610a1f90600160501b900461ffff166001610e73565b6002848101805461ffff60501b1916600160501b61ffff94851602179055830154610a5491600160401b909104166001610e73565b8260020160086101000a81548161ffff021916908361ffff16021790555061086283610ee1565b6000546001600160a01b03163314610a9257600080fd5b6001600160a01b038116610aa557600080fd5b600080546040516001600160a01b03808516939216917f8be0079c531659141344cd1fd0a4f28419497f9722a3daafe3b4186f6b6457e091a3600080546001600160a01b0319166001600160a01b0392909216919091179055565b60008381526005602052604090205483906001600160a01b03163314610b2557600080fd5b600060048581548110610b4857634e487b7160e01b600052603260045260246000fd5b90600052602060002090600302019050610b6181610f13565b610b6a57600080fd5b600254610b77908561145b565b935060006002858360010154610b8d919061134f565b610b979190611386565b90507f8d53323b21b9f304546f6d3e61cde865451064d614aa4912f395b755a9d8cad984604051602001610bcb9190611210565b604051602081830303815290604052805190602001201415610c0a57610bf260648261145b565b610bfc908261139a565b610c0790606361134f565b90505b610c32604051806040016040528060068152602001654e6f4e616d6560d01b81525082610c7f565b61086282610ee1565b60008082604051602001610c4f9190611210565b6040516020818303038152906040528051906020012060001c905060025481610c78919061145b565b9392505050565b60046040518060c00160405280848152602001838152602001600163ffffffff16815260200160035442610cb3919061134f565b63ffffffff168152600060208083018290526040909201819052835460018101855593815281902082518051939460030290910192610cf59284920190610f59565b5060208201516001828101919091556040830151600290920180546060850151608086015160a09096015163ffffffff1990921663ffffffff9586161767ffffffff00000000191664010000000095909116949094029390931761ffff60401b1916600160401b61ffff958616021761ffff60501b1916600160501b949093169390930291909117909155600454600091610d8f9161139a565b600081815260056020908152604080832080546001600160a01b0319163390811790915583526006909152902054909150610dcb906001610f2c565b336000908152600660205260409081902091909155517f88f026aacbbecc90c18411df4b1185fd8d9be2470f1962f192bf84a27d0704b790610e1290839086908690611300565b60405180910390a1505050565b600954600090610e30906001610f2c565b60098190556040518391610e4a914291339160200161122c565b6040516020818303038152906040528051906020012060001c610e6d919061145b565b92915050565b600080610e808385611329565b90508361ffff168161ffff161015610c7857634e487b7160e01b600052600160045260246000fd5b600080610eb58385611367565b90508363ffffffff168163ffffffff161015610c7857634e487b7160e01b600052600160045260246000fd5b600354610eee904261134f565b8160020160046101000a81548163ffffffff021916908363ffffffff16021790555050565b600201544264010000000090910463ffffffff16111590565b600080610f39838561134f565b905083811015610c7857634e487b7160e01b600052600160045260246000fd5b828054610f65906113e1565b90600052602060002090601f016020900481019282610f875760008555610fcd565b82601f10610fa057805160ff1916838001178555610fcd565b82800160010185558215610fcd579182015b82811115610fcd578251825591602001919060010190610fb2565b50610fd9929150610fdd565b5090565b5b80821115610fd95760008155600101610fde565b8051801515811461063857600080fd5b600082601f830112611012578081fd5b813567ffffffffffffffff8082111561102d5761102d61149b565b604051601f8301601f1916810160200182811182821017156110515761105161149b565b604052828152848301602001861015611068578384fd5b82602086016020830137918201602001929092529392505050565b600060208284031215611094578081fd5b81356001600160a01b0381168114610c78578182fd5b6000806000806000806000806000806101408b8d0312156110c9578586fd5b6110d28b610ff2565b99506110e060208c01610ff2565b985060408b0151975060608b0151965060808b0151955060a08b0151945060c08b0151935060e08b015192506101008b015191506101208b015190509295989b9194979a5092959850565b60006020828403121561113c578081fd5b813567ffffffffffffffff811115611152578182fd5b61115e84828501611002565b949350505050565b600060208284031215611177578081fd5b5035919050565b60008060408385031215611190578182fd5b82359150602083013567ffffffffffffffff8111156111ad578182fd5b6111b985828601611002565b9150509250929050565b600080604083850312156111d5578182fd5b50508035926020909101359150565b600081518084526111fc8160208601602086016113b1565b601f01601f19169290920160200192915050565b600082516112228184602087016113b1565b9190910192915050565b92835260609190911b6bffffffffffffffffffffffff19166020830152603482015260540190565b6001600160a01b0391909116815260200190565b6020808252825182820181905260009190848201906040850190845b818110156112a057835183529284019291840191600101611284565b50909695505050505050565b600060c082526112bf60c08301896111e4565b60208301979097525063ffffffff948516604082015292909316606083015261ffff908116608083015290911660a090910152919050565b90815260200190565b60008482526060602083015261131960608301856111e4565b9050826040830152949350505050565b600061ffff8083168185168083038211156113465761134661146f565b01949350505050565b600082198211156113625761136261146f565b500190565b600063ffffffff8083168185168083038211156113465761134661146f565b60008261139557611395611485565b500490565b6000828210156113ac576113ac61146f565b500390565b60005b838110156113cc5781810151838201526020016113b4565b838111156113db576000848401525b50505050565b6002810460018216806113f557607f821691505b6020821081141561141657634e487b7160e01b600052602260045260246000fd5b50919050565b60006000198214156114305761143061146f565b5060010190565b600063ffffffff808316818114156114515761145161146f565b6001019392505050565b60008261146a5761146a611485565b500690565b634e487b7160e01b600052601160045260246000fd5b634e487b7160e01b600052601260045260246000fd5b634e487b7160e01b600052604160045260246000fdfea2646970667358221220243449c09a7af06b44eebcb83c1f22f63686f3835d048e428cf1730bd94dc42a64736f6c63430008000033",
    "sourcePath": "d:/VSCode/Project/cryptoZombies_smart_contract/contracts/zombieAttack.sol",
    "compiler": {
        "name": "solc",
        "version": "0.8.0+commit.c7dfd78e"
    },
    "functionHashes": {
        "attack(uint256,uint256)": "e1fa7638",
        "changeDna(uint256,uint256)": "5faf2880",
        "changeName(uint256,string)": "c39cbef1",
        "createRandomZombie(string)": "7bff0a01",
        "feedOnKitty(uint256,uint256)": "17a7f4cc",
        "getZombiesByOwner(address)": "4412e104",
        "levelUp(uint256)": "0ce90ec2",
        "ownable()": "b38854be",
        "owner()": "8da5cb5b",
        "setKittyContractAddress(address)": "5f4623f1",
        "setLevelUpFee(uint256)": "ccf670f8",
        "transferOwnership(address)": "f2fde38b",
        "withdraw()": "3ccfd60b",
        "zombieToOwner(uint256)": "528b7b8f",
        "zombies(uint256)": "2052465e"
    },
    "gasEstimates": {
        "creation": {
            "codeDepositCost": "1070200",
            "executionCost": "infinite",
            "totalCost": "infinite"
        },
        "external": {
            "attack(uint256,uint256)": "infinite",
            "changeDna(uint256,uint256)": "23844",
            "changeName(uint256,string)": "infinite",
            "createRandomZombie(string)": "infinite",
            "feedOnKitty(uint256,uint256)": "infinite",
            "getZombiesByOwner(address)": "infinite",
            "levelUp(uint256)": "23715",
            "ownable()": "21068",
            "owner()": "1137",
            "setKittyContractAddress(address)": "22065",
            "setLevelUpFee(uint256)": "21108",
            "transferOwnership(address)": "24453",
            "withdraw()": "infinite",
            "zombieToOwner(uint256)": "1280",
            "zombies(uint256)": "infinite"
        },
        "internal": {
            "randMod(uint256)": "infinite"
        }
    }
}