{
    "contractName": "ZombieFeeding",
    "abi": [
        {
            "anonymous": false,
            "inputs": [
                {
                    "indexed": false,
                    "internalType": "uint256",
                    "name": "zombieId",
                    "type": "uint256"
                },
                {
                    "indexed": false,
                    "internalType": "string",
                    "name": "name",
                    "type": "string"
                },
                {
                    "indexed": false,
                    "internalType": "uint256",
                    "name": "dna",
                    "type": "uint256"
                }
            ],
            "name": "NewZombie",
            "type": "event"
        },
        {
            "anonymous": false,
            "inputs": [
                {
                    "indexed": true,
                    "internalType": "address",
                    "name": "previousOwner",
                    "type": "address"
                },
                {
                    "indexed": true,
                    "internalType": "address",
                    "name": "newOwner",
                    "type": "address"
                }
            ],
            "name": "OwnershipTransferred",
            "type": "event"
        },
        {
            "inputs": [
                {
                    "internalType": "string",
                    "name": "_name",
                    "type": "string"
                }
            ],
            "name": "createRandomZombie",
            "outputs": [],
            "stateMutability": "nonpayable",
            "type": "function"
        },
        {
            "inputs": [
                {
                    "internalType": "uint256",
                    "name": "_zombieId",
                    "type": "uint256"
                },
                {
                    "internalType": "uint256",
                    "name": "_kittyId",
                    "type": "uint256"
                }
            ],
            "name": "feedOnKitty",
            "outputs": [],
            "stateMutability": "nonpayable",
            "type": "function"
        },
        {
            "inputs": [],
            "name": "ownable",
            "outputs": [],
            "stateMutability": "nonpayable",
            "type": "function"
        },
        {
            "inputs": [],
            "name": "owner",
            "outputs": [
                {
                    "internalType": "address",
                    "name": "",
                    "type": "address"
                }
            ],
            "stateMutability": "view",
            "type": "function"
        },
        {
            "inputs": [
                {
                    "internalType": "address",
                    "name": "_address",
                    "type": "address"
                }
            ],
            "name": "setKittyContractAddress",
            "outputs": [],
            "stateMutability": "nonpayable",
            "type": "function"
        },
        {
            "inputs": [
                {
                    "internalType": "address",
                    "name": "newOwner",
                    "type": "address"
                }
            ],
            "name": "transferOwnership",
            "outputs": [],
            "stateMutability": "nonpayable",
            "type": "function"
        },
        {
            "inputs": [
                {
                    "internalType": "uint256",
                    "name": "",
                    "type": "uint256"
                }
            ],
            "name": "zombieToOwner",
            "outputs": [
                {
                    "internalType": "address",
                    "name": "",
                    "type": "address"
                }
            ],
            "stateMutability": "view",
            "type": "function"
        },
        {
            "inputs": [
                {
                    "internalType": "uint256",
                    "name": "",
                    "type": "uint256"
                }
            ],
            "name": "zombies",
            "outputs": [
                {
                    "internalType": "string",
                    "name": "name",
                    "type": "string"
                },
                {
                    "internalType": "uint256",
                    "name": "dna",
                    "type": "uint256"
                },
                {
                    "internalType": "uint32",
                    "name": "level",
                    "type": "uint32"
                },
                {
                    "internalType": "uint32",
                    "name": "readyTime",
                    "type": "uint32"
                },
                {
                    "internalType": "uint16",
                    "name": "winCount",
                    "type": "uint16"
                },
                {
                    "internalType": "uint16",
                    "name": "lossCount",
                    "type": "uint16"
                }
            ],
            "stateMutability": "view",
            "type": "function"
        }
    ],
    "bytecode": "6080604052601060018190556200001890600a62000083565b600255620151806003553480156200002f57600080fd5b506200018e565b80825b60018086116200004a57506200007a565b8187048211156200005f576200005f62000178565b808616156200006d57918102915b9490941c93800262000039565b94509492505050565b60006200009460001984846200009b565b9392505050565b600082620000ac5750600162000094565b81620000bb5750600062000094565b8160018114620000d45760028114620000df5762000113565b600191505062000094565b60ff841115620000f357620000f362000178565b6001841b9150848211156200010c576200010c62000178565b5062000094565b5060208310610133831016604e8410600b84101617156200014b575081810a8381111562000145576200014562000178565b62000094565b6200015a848484600162000036565b8086048211156200016f576200016f62000178565b02949350505050565b634e487b7160e01b600052601160045260246000fd5b610bf3806200019e6000396000f3fe608060405234801561001057600080fd5b50600436106100885760003560e01c80637bff0a011161005b5780637bff0a01146101035780638da5cb5b14610116578063b38854be1461011e578063f2fde38b1461012657610088565b806317a7f4cc1461008d5780632052465e146100a2578063528b7b8f146100d05780635f4623f1146100f0575b600080fd5b6100a061009b3660046109a4565b610139565b005b6100b56100b036600461098c565b6101f7565b6040516100c796959493929190610a21565b60405180910390f35b6100e36100de36600461098c565b6102e1565b6040516100c79190610a0d565b6100a06100fe36600461083c565b6102fc565b6100a06101113660046108eb565b610335565b6100e3610381565b6100a0610390565b6100a061013436600461083c565b6103a4565b60075460405163e98b7f4d60e01b81526000916001600160a01b03169063e98b7f4d9061016a908590600401610a6c565b6101406040518083038186803b15801561018357600080fd5b505afa158015610197573d6000803e3d6000fd5b505050506040513d601f19601f820116820180604052508101906101bb919061086a565b6040805180820190915260058152646b6974747960d81b6020820152909a506101f299508c98508a97509550610429945050505050565b505050565b6004818154811061020757600080fd5b906000526020600020906003020160009150905080600001805461022a90610b11565b80601f016020809104026020016040519081016040528092919081815260200182805461025690610b11565b80156102a35780601f10610278576101008083540402835291602001916102a3565b820191906000526020600020905b81548152906001019060200180831161028657829003601f168201915b505050600184015460029094015492939263ffffffff8082169350640100000000820416915061ffff600160401b8204811691600160501b90041686565b6005602052600090815260409020546001600160a01b031681565b6000546001600160a01b0316331461031357600080fd5b600780546001600160a01b0319166001600160a01b0392909216919091179055565b336000908152600660205260409020541561034f57600080fd5b600061035a8261056c565b9050610367606482610b67565b6103719082610aca565b905061037d82826105b2565b5050565b6000546001600160a01b031681565b600080546001600160a01b03191633179055565b6000546001600160a01b031633146103bb57600080fd5b6001600160a01b0381166103ce57600080fd5b600080546040516001600160a01b03808516939216917f8be0079c531659141344cd1fd0a4f28419497f9722a3daafe3b4186f6b6457e091a3600080546001600160a01b0319166001600160a01b0392909216919091179055565b60008381526005602052604090205483906001600160a01b0316331461044e57600080fd5b60006004858154811061047157634e487b7160e01b600052603260045260246000fd5b9060005260206000209060030201905061048a81610748565b61049357600080fd5b6002546104a09085610b67565b9350600060028583600101546104b69190610a9e565b6104c09190610ab6565b90507f8d53323b21b9f304546f6d3e61cde865451064d614aa4912f395b755a9d8cad9846040516020016104f491906109f1565b6040516020818303038152906040528051906020012014156105335761051b606482610b67565b6105259082610aca565b610530906063610a9e565b90505b61055b604051806040016040528060068152602001654e6f4e616d6560d01b815250826105b2565b61056482610761565b505050505050565b6000808260405160200161058091906109f1565b6040516020818303038152906040528051906020012060001c9050600254816105a99190610b67565b9150505b919050565b60046040518060c00160405280848152602001838152602001600163ffffffff168152602001600354426105e69190610a9e565b63ffffffff1681526000602080830182905260409092018190528354600181018555938152819020825180519394600302909101926106289284920190610793565b5060208201516001828101919091556040830151600290920180546060850151608086015160a09096015163ffffffff1990921663ffffffff9586161767ffffffff00000000191664010000000095909116949094029390931769ffff00000000000000001916600160401b61ffff958616021761ffff60501b1916600160501b9490931693909302919091179091556004546000916106c791610aca565b600081815260056020908152604080832080546001600160a01b0319163390811790915583526006909152812080549293509061070383610b4c565b91905055507f88f026aacbbecc90c18411df4b1185fd8d9be2470f1962f192bf84a27d0704b781848460405161073b93929190610a75565b60405180910390a1505050565b600201544264010000000090910463ffffffff16111590565b60035461076e9042610a9e565b8160020160046101000a81548163ffffffff021916908363ffffffff16021790555050565b82805461079f90610b11565b90600052602060002090601f0160209004810192826107c15760008555610807565b82601f106107da57805160ff1916838001178555610807565b82800160010185558215610807579182015b828111156108075782518255916020019190600101906107ec565b50610813929150610817565b5090565b5b808211156108135760008155600101610818565b805180151581146105ad57600080fd5b60006020828403121561084d578081fd5b81356001600160a01b0381168114610863578182fd5b9392505050565b6000806000806000806000806000806101408b8d031215610889578586fd5b6108928b61082c565b99506108a060208c0161082c565b985060408b0151975060608b0151965060808b0151955060a08b0151945060c08b0151935060e08b015192506101008b015191506101208b015190509295989b9194979a5092959850565b600060208083850312156108fd578182fd5b823567ffffffffffffffff80821115610914578384fd5b818501915085601f830112610927578384fd5b81358181111561093957610939610ba7565b604051601f8201601f191681018501838111828210171561095c5761095c610ba7565b6040528181528382018501881015610972578586fd5b818585018683013790810190930193909352509392505050565b60006020828403121561099d578081fd5b5035919050565b600080604083850312156109b6578182fd5b50508035926020909101359150565b600081518084526109dd816020860160208601610ae1565b601f01601f19169290920160200192915050565b60008251610a03818460208701610ae1565b9190910192915050565b6001600160a01b0391909116815260200190565b600060c08252610a3460c08301896109c5565b60208301979097525063ffffffff948516604082015292909316606083015261ffff908116608083015290911660a090910152919050565b90815260200190565b600084825260606020830152610a8e60608301856109c5565b9050826040830152949350505050565b60008219821115610ab157610ab1610b7b565b500190565b600082610ac557610ac5610b91565b500490565b600082821015610adc57610adc610b7b565b500390565b60005b83811015610afc578181015183820152602001610ae4565b83811115610b0b576000848401525b50505050565b600281046001821680610b2557607f821691505b60208210811415610b4657634e487b7160e01b600052602260045260246000fd5b50919050565b6000600019821415610b6057610b60610b7b565b5060010190565b600082610b7657610b76610b91565b500690565b634e487b7160e01b600052601160045260246000fd5b634e487b7160e01b600052601260045260246000fd5b634e487b7160e01b600052604160045260246000fdfea26469706673582212208bbe90ebca3a8c5416c97593ea7c6859c27b7fc274488b6444ad5c3d367bad6d64736f6c63430008000033",
    "sourcePath": "d:/VSCode/Project/cryptoZombies_smart_contract/contracts/zombieFeeding.sol",
    "compiler": {
        "name": "solc",
        "version": "0.8.0+commit.c7dfd78e"
    },
    "functionHashes": {
        "createRandomZombie(string)": "7bff0a01",
        "feedOnKitty(uint256,uint256)": "17a7f4cc",
        "ownable()": "b38854be",
        "owner()": "8da5cb5b",
        "setKittyContractAddress(address)": "5f4623f1",
        "transferOwnership(address)": "f2fde38b",
        "zombieToOwner(uint256)": "528b7b8f",
        "zombies(uint256)": "2052465e"
    },
    "gasEstimates": {
        "creation": {
            "codeDepositCost": "611800",
            "executionCost": "infinite",
            "totalCost": "infinite"
        },
        "external": {
            "createRandomZombie(string)": "infinite",
            "feedOnKitty(uint256,uint256)": "infinite",
            "ownable()": "21023",
            "owner()": "1092",
            "setKittyContractAddress(address)": "22043",
            "transferOwnership(address)": "24431",
            "zombieToOwner(uint256)": "1258",
            "zombies(uint256)": "infinite"
        },
        "internal": {
            "_isReady(struct ZombieFactory.Zombie storage pointer)": "846",
            "_triggerCooldown(struct ZombieFactory.Zombie storage pointer)": "21803",
            "feedAndMultiply(uint256,uint256,string memory)": "infinite"
        }
    }
}