{
    "contractName": "ZombieFactory",
    "abi": [
        {
            "anonymous": false,
            "inputs": [
                {
                    "indexed": false,
                    "internalType": "uint256",
                    "name": "zombieId",
                    "type": "uint256"
                },
                {
                    "indexed": false,
                    "internalType": "string",
                    "name": "name",
                    "type": "string"
                },
                {
                    "indexed": false,
                    "internalType": "uint256",
                    "name": "dna",
                    "type": "uint256"
                }
            ],
            "name": "NewZombie",
            "type": "event"
        },
        {
            "anonymous": false,
            "inputs": [
                {
                    "indexed": true,
                    "internalType": "address",
                    "name": "previousOwner",
                    "type": "address"
                },
                {
                    "indexed": true,
                    "internalType": "address",
                    "name": "newOwner",
                    "type": "address"
                }
            ],
            "name": "OwnershipTransferred",
            "type": "event"
        },
        {
            "inputs": [
                {
                    "internalType": "string",
                    "name": "_name",
                    "type": "string"
                }
            ],
            "name": "createRandomZombie",
            "outputs": [],
            "stateMutability": "nonpayable",
            "type": "function"
        },
        {
            "inputs": [],
            "name": "ownable",
            "outputs": [],
            "stateMutability": "nonpayable",
            "type": "function"
        },
        {
            "inputs": [],
            "name": "owner",
            "outputs": [
                {
                    "internalType": "address",
                    "name": "",
                    "type": "address"
                }
            ],
            "stateMutability": "view",
            "type": "function"
        },
        {
            "inputs": [
                {
                    "internalType": "address",
                    "name": "newOwner",
                    "type": "address"
                }
            ],
            "name": "transferOwnership",
            "outputs": [],
            "stateMutability": "nonpayable",
            "type": "function"
        },
        {
            "inputs": [
                {
                    "internalType": "uint256",
                    "name": "",
                    "type": "uint256"
                }
            ],
            "name": "zombieToOwner",
            "outputs": [
                {
                    "internalType": "address",
                    "name": "",
                    "type": "address"
                }
            ],
            "stateMutability": "view",
            "type": "function"
        },
        {
            "inputs": [
                {
                    "internalType": "uint256",
                    "name": "",
                    "type": "uint256"
                }
            ],
            "name": "zombies",
            "outputs": [
                {
                    "internalType": "string",
                    "name": "name",
                    "type": "string"
                },
                {
                    "internalType": "uint256",
                    "name": "dna",
                    "type": "uint256"
                },
                {
                    "internalType": "uint32",
                    "name": "level",
                    "type": "uint32"
                },
                {
                    "internalType": "uint32",
                    "name": "readyTime",
                    "type": "uint32"
                },
                {
                    "internalType": "uint16",
                    "name": "winCount",
                    "type": "uint16"
                },
                {
                    "internalType": "uint16",
                    "name": "lossCount",
                    "type": "uint16"
                }
            ],
            "stateMutability": "view",
            "type": "function"
        }
    ],
    "bytecode": "6080604052601060018190556200001890600a62000083565b600255620151806003553480156200002f57600080fd5b506200018e565b80825b60018086116200004a57506200007a565b8187048211156200005f576200005f62000178565b808616156200006d57918102915b9490941c93800262000039565b94509492505050565b60006200009460001984846200009b565b9392505050565b600082620000ac5750600162000094565b81620000bb5750600062000094565b8160018114620000d45760028114620000df5762000113565b600191505062000094565b60ff841115620000f357620000f362000178565b6001841b9150848211156200010c576200010c62000178565b5062000094565b5060208310610133831016604e8410600b84101617156200014b575081810a8381111562000145576200014562000178565b62000094565b6200015a848484600162000036565b8086048211156200016f576200016f62000178565b02949350505050565b634e487b7160e01b600052601160045260246000fd5b610840806200019e6000396000f3fe608060405234801561001057600080fd5b50600436106100625760003560e01c80632052465e14610067578063528b7b8f146100955780637bff0a01146100b55780638da5cb5b146100ca578063b38854be146100d2578063f2fde38b146100da575b600080fd5b61007a610075366004610621565b6100ed565b60405161008c96959493929190610695565b60405180910390f35b6100a86100a3366004610621565b6101d7565b60405161008c9190610681565b6100c86100c3366004610580565b6101f2565b005b6100a861023e565b6100c861024d565b6100c86100e8366004610559565b610261565b600481815481106100fd57600080fd5b906000526020600020906003020160009150905080600001805461012090610768565b80601f016020809104026020016040519081016040528092919081815260200182805461014c90610768565b80156101995780601f1061016e57610100808354040283529160200191610199565b820191906000526020600020905b81548152906001019060200180831161017c57829003601f168201915b505050600184015460029094015492939263ffffffff8082169350640100000000820416915061ffff600160401b8204811691600160501b90041686565b6005602052600090815260409020546001600160a01b031681565b336000908152600660205260409020541561020c57600080fd5b6000610217826102e6565b90506102246064826107be565b61022e9082610721565b905061023a828261032a565b5050565b6000546001600160a01b031681565b600080546001600160a01b03191633179055565b6000546001600160a01b0316331461027857600080fd5b6001600160a01b03811661028b57600080fd5b600080546040516001600160a01b03808516939216917f8be0079c531659141344cd1fd0a4f28419497f9722a3daafe3b4186f6b6457e091a3600080546001600160a01b0319166001600160a01b0392909216919091179055565b600080826040516020016102fa9190610665565b6040516020818303038152906040528051906020012060001c90506002548161032391906107be565b9392505050565b60046040518060c00160405280848152602001838152602001600163ffffffff1681526020016003544261035e9190610709565b63ffffffff1681526000602080830182905260409092018190528354600181018555938152819020825180519394600302909101926103a092849201906104c0565b5060208201516001828101919091556040830151600290920180546060850151608086015160a09096015163ffffffff1990921663ffffffff9586161767ffffffff00000000191664010000000095909116949094029390931769ffff00000000000000001916600160401b61ffff958616021761ffff60501b1916600160501b94909316939093029190911790915560045460009161043f91610721565b600081815260056020908152604080832080546001600160a01b0319163390811790915583526006909152812080549293509061047b836107a3565b91905055507f88f026aacbbecc90c18411df4b1185fd8d9be2470f1962f192bf84a27d0704b78184846040516104b3939291906106e0565b60405180910390a1505050565b8280546104cc90610768565b90600052602060002090601f0160209004810192826104ee5760008555610534565b82601f1061050757805160ff1916838001178555610534565b82800160010185558215610534579182015b82811115610534578251825591602001919060010190610519565b50610540929150610544565b5090565b5b808211156105405760008155600101610545565b60006020828403121561056a578081fd5b81356001600160a01b0381168114610323578182fd5b60006020808385031215610592578182fd5b823567ffffffffffffffff808211156105a9578384fd5b818501915085601f8301126105bc578384fd5b8135818111156105ce576105ce6107f4565b604051601f8201601f19168101850183811182821017156105f1576105f16107f4565b6040528181528382018501881015610607578586fd5b818585018683013790810190930193909352509392505050565b600060208284031215610632578081fd5b5035919050565b60008151808452610651816020860160208601610738565b601f01601f19169290920160200192915050565b60008251610677818460208701610738565b9190910192915050565b6001600160a01b0391909116815260200190565b600060c082526106a860c0830189610639565b60208301979097525063ffffffff948516604082015292909316606083015261ffff908116608083015290911660a090910152919050565b6000848252606060208301526106f96060830185610639565b9050826040830152949350505050565b6000821982111561071c5761071c6107de565b500190565b600082821015610733576107336107de565b500390565b60005b8381101561075357818101518382015260200161073b565b83811115610762576000848401525b50505050565b60028104600182168061077c57607f821691505b6020821081141561079d57634e487b7160e01b600052602260045260246000fd5b50919050565b60006000198214156107b7576107b76107de565b5060010190565b6000826107d957634e487b7160e01b81526012600452602481fd5b500690565b634e487b7160e01b600052601160045260246000fd5b634e487b7160e01b600052604160045260246000fdfea26469706673582212205f35cf1e39165f1082f2960424409aa400a68cbc7cad421e350632e8089cef4164736f6c63430008000033",
    "sourcePath": "d:/VSCode/Project/cryptoZombies_smart_contract/contracts/zombieFactory.sol",
    "compiler": {
        "name": "solc",
        "version": "0.8.0+commit.c7dfd78e"
    },
    "functionHashes": {
        "createRandomZombie(string)": "7bff0a01",
        "ownable()": "b38854be",
        "owner()": "8da5cb5b",
        "transferOwnership(address)": "f2fde38b",
        "zombieToOwner(uint256)": "528b7b8f",
        "zombies(uint256)": "2052465e"
    },
    "gasEstimates": {
        "creation": {
            "codeDepositCost": "422400",
            "executionCost": "infinite",
            "totalCost": "infinite"
        },
        "external": {
            "createRandomZombie(string)": "infinite",
            "ownable()": "21045",
            "owner()": "1114",
            "transferOwnership(address)": "24453",
            "zombieToOwner(uint256)": "1213",
            "zombies(uint256)": "infinite"
        },
        "internal": {
            "_createZombie(string memory,uint256)": "infinite",
            "_generateRandomDna(string memory)": "infinite"
        }
    }
}