{
    "contractName": "ZombieHelper",
    "abi": [
        {
            "anonymous": false,
            "inputs": [
                {
                    "indexed": false,
                    "internalType": "uint256",
                    "name": "zombieId",
                    "type": "uint256"
                },
                {
                    "indexed": false,
                    "internalType": "string",
                    "name": "name",
                    "type": "string"
                },
                {
                    "indexed": false,
                    "internalType": "uint256",
                    "name": "dna",
                    "type": "uint256"
                }
            ],
            "name": "NewZombie",
            "type": "event"
        },
        {
            "anonymous": false,
            "inputs": [
                {
                    "indexed": true,
                    "internalType": "address",
                    "name": "previousOwner",
                    "type": "address"
                },
                {
                    "indexed": true,
                    "internalType": "address",
                    "name": "newOwner",
                    "type": "address"
                }
            ],
            "name": "OwnershipTransferred",
            "type": "event"
        },
        {
            "inputs": [
                {
                    "internalType": "uint256",
                    "name": "_zombieId",
                    "type": "uint256"
                },
                {
                    "internalType": "uint256",
                    "name": "_newDna",
                    "type": "uint256"
                }
            ],
            "name": "changeDna",
            "outputs": [],
            "stateMutability": "nonpayable",
            "type": "function"
        },
        {
            "inputs": [
                {
                    "internalType": "uint256",
                    "name": "_zombieId",
                    "type": "uint256"
                },
                {
                    "internalType": "string",
                    "name": "_newName",
                    "type": "string"
                }
            ],
            "name": "changeName",
            "outputs": [],
            "stateMutability": "nonpayable",
            "type": "function"
        },
        {
            "inputs": [
                {
                    "internalType": "string",
                    "name": "_name",
                    "type": "string"
                }
            ],
            "name": "createRandomZombie",
            "outputs": [],
            "stateMutability": "nonpayable",
            "type": "function"
        },
        {
            "inputs": [
                {
                    "internalType": "uint256",
                    "name": "_zombieId",
                    "type": "uint256"
                },
                {
                    "internalType": "uint256",
                    "name": "_kittyId",
                    "type": "uint256"
                }
            ],
            "name": "feedOnKitty",
            "outputs": [],
            "stateMutability": "nonpayable",
            "type": "function"
        },
        {
            "inputs": [
                {
                    "internalType": "address",
                    "name": "_owner",
                    "type": "address"
                }
            ],
            "name": "getZombiesByOwner",
            "outputs": [
                {
                    "internalType": "uint256[]",
                    "name": "",
                    "type": "uint256[]"
                }
            ],
            "stateMutability": "view",
            "type": "function"
        },
        {
            "inputs": [
                {
                    "internalType": "uint256",
                    "name": "_zombieId",
                    "type": "uint256"
                }
            ],
            "name": "levelUp",
            "outputs": [],
            "stateMutability": "payable",
            "type": "function"
        },
        {
            "inputs": [],
            "name": "ownable",
            "outputs": [],
            "stateMutability": "nonpayable",
            "type": "function"
        },
        {
            "inputs": [],
            "name": "owner",
            "outputs": [
                {
                    "internalType": "address",
                    "name": "",
                    "type": "address"
                }
            ],
            "stateMutability": "view",
            "type": "function"
        },
        {
            "inputs": [
                {
                    "internalType": "address",
                    "name": "_address",
                    "type": "address"
                }
            ],
            "name": "setKittyContractAddress",
            "outputs": [],
            "stateMutability": "nonpayable",
            "type": "function"
        },
        {
            "inputs": [
                {
                    "internalType": "uint256",
                    "name": "_fee",
                    "type": "uint256"
                }
            ],
            "name": "setLevelUpFee",
            "outputs": [],
            "stateMutability": "nonpayable",
            "type": "function"
        },
        {
            "inputs": [
                {
                    "internalType": "address",
                    "name": "newOwner",
                    "type": "address"
                }
            ],
            "name": "transferOwnership",
            "outputs": [],
            "stateMutability": "nonpayable",
            "type": "function"
        },
        {
            "inputs": [],
            "name": "withdraw",
            "outputs": [],
            "stateMutability": "nonpayable",
            "type": "function"
        },
        {
            "inputs": [
                {
                    "internalType": "uint256",
                    "name": "",
                    "type": "uint256"
                }
            ],
            "name": "zombieToOwner",
            "outputs": [
                {
                    "internalType": "address",
                    "name": "",
                    "type": "address"
                }
            ],
            "stateMutability": "view",
            "type": "function"
        },
        {
            "inputs": [
                {
                    "internalType": "uint256",
                    "name": "",
                    "type": "uint256"
                }
            ],
            "name": "zombies",
            "outputs": [
                {
                    "internalType": "string",
                    "name": "name",
                    "type": "string"
                },
                {
                    "internalType": "uint256",
                    "name": "dna",
                    "type": "uint256"
                },
                {
                    "internalType": "uint32",
                    "name": "level",
                    "type": "uint32"
                },
                {
                    "internalType": "uint32",
                    "name": "readyTime",
                    "type": "uint32"
                },
                {
                    "internalType": "uint16",
                    "name": "winCount",
                    "type": "uint16"
                },
                {
                    "internalType": "uint16",
                    "name": "lossCount",
                    "type": "uint16"
                }
            ],
            "stateMutability": "view",
            "type": "function"
        }
    ],
    "bytecode": "6080604052601060018190556200001890600a6200008e565b6002556201518060035566038d7ea4c680006008553480156200003a57600080fd5b5062000199565b80825b600180861162000055575062000085565b8187048211156200006a576200006a62000183565b808616156200007857918102915b9490941c93800262000044565b94509492505050565b60006200009f6000198484620000a6565b9392505050565b600082620000b7575060016200009f565b81620000c6575060006200009f565b8160018114620000df5760028114620000ea576200011e565b60019150506200009f565b60ff841115620000fe57620000fe62000183565b6001841b91508482111562000117576200011762000183565b506200009f565b5060208310610133831016604e8410600b841016171562000156575081810a8381111562000150576200015062000183565b6200009f565b62000165848484600162000041565b8086048211156200017a576200017a62000183565b02949350505050565b634e487b7160e01b600052601160045260246000fd5b61116180620001a96000396000f3fe6080604052600436106100dd5760003560e01c80635faf28801161007f578063b38854be11610059578063b38854be14610236578063c39cbef11461024b578063ccf670f81461026b578063f2fde38b1461028b576100dd565b80635faf2880146101e15780637bff0a01146102015780638da5cb5b14610221576100dd565b80633ccfd60b116100bb5780633ccfd60b146101525780634412e10414610167578063528b7b8f146101945780635f4623f1146101c1576100dd565b80630ce90ec2146100e257806317a7f4cc146100f75780632052465e14610117575b600080fd5b6100f56100f0366004610e4d565b6102ab565b005b34801561010357600080fd5b506100f5610112366004610eaa565b610320565b34801561012357600080fd5b50610137610132366004610e4d565b6103de565b60405161014996959493929190610f6b565b60405180910390f35b34801561015e57600080fd5b506100f56104c8565b34801561017357600080fd5b50610187610182366004610d6a565b61051c565b6040516101499190610f27565b3480156101a057600080fd5b506101b46101af366004610e4d565b610612565b6040516101499190610f13565b3480156101cd57600080fd5b506100f56101dc366004610d6a565b61062d565b3480156101ed57600080fd5b506100f56101fc366004610eaa565b610666565b34801561020d57600080fd5b506100f561021c366004610e12565b610713565b34801561022d57600080fd5b506101b461075f565b34801561024257600080fd5b506100f561076e565b34801561025757600080fd5b506100f5610266366004610e65565b610782565b34801561027757600080fd5b506100f5610286366004610e4d565b61083f565b34801561029757600080fd5b506100f56102a6366004610d6a565b61085b565b60085434146102b957600080fd5b600481815481106102da57634e487b7160e01b600052603260045260246000fd5b600091825260208220600260039092020101805463ffffffff16916102fe836110b1565b91906101000a81548163ffffffff021916908363ffffffff1602179055505050565b60075460405163e98b7f4d60e01b81526000916001600160a01b03169063e98b7f4d90610351908590600401610fb6565b6101406040518083038186803b15801561036a57600080fd5b505afa15801561037e573d6000803e3d6000fd5b505050506040513d601f19601f820116820180604052508101906103a29190610d91565b6040805180820190915260058152646b6974747960d81b6020820152909a506103d999508c98508a975095506108e0945050505050565b505050565b600481815481106103ee57600080fd5b90600052602060002090600302016000915090508060000180546104119061105b565b80601f016020809104026020016040519081016040528092919081815260200182805461043d9061105b565b801561048a5780601f1061045f5761010080835404028352916020019161048a565b820191906000526020600020905b81548152906001019060200180831161046d57829003601f168201915b505050600184015460029094015492939263ffffffff8082169350640100000000820416915061ffff600160401b8204811691600160501b90041686565b6000546001600160a01b031633146104df57600080fd5b600080546040516001600160a01b03909116914780156108fc02929091818181858888f19350505050158015610519573d6000803e3d6000fd5b50565b6001600160a01b0381166000908152600660205260408120546060919067ffffffffffffffff81111561055f57634e487b7160e01b600052604160045260246000fd5b604051908082528060200260200182016040528015610588578160200160208202803683370190505b5090506000805b600454811015610607576000818152600560205260409020546001600160a01b03868116911614156105f557808383815181106105dc57634e487b7160e01b600052603260045260246000fd5b6020908102919091010152816105f181611096565b9250505b806105ff81611096565b91505061058f565b50909150505b919050565b6005602052600090815260409020546001600160a01b031681565b6000546001600160a01b0316331461064457600080fd5b600780546001600160a01b0319166001600160a01b0392909216919091179055565b601482816004828154811061068b57634e487b7160e01b600052603260045260246000fd5b600091825260209091206002600390920201015463ffffffff1610156106b057600080fd5b60008481526005602052604090205484906001600160a01b031633146106d557600080fd5b83600486815481106106f757634e487b7160e01b600052603260045260246000fd5b9060005260206000209060030201600101819055505050505050565b336000908152600660205260409020541561072d57600080fd5b600061073882610a1b565b90506107456064826110d5565b61074f9082611014565b905061075b8282610a5f565b5050565b6000546001600160a01b031681565b600080546001600160a01b03191633179055565b60028281600482815481106107a757634e487b7160e01b600052603260045260246000fd5b600091825260209091206002600390920201015463ffffffff1610156107cc57600080fd5b60008481526005602052604090205484906001600160a01b031633146107f157600080fd5b836004868154811061081357634e487b7160e01b600052603260045260246000fd5b90600052602060002090600302016000019080519060200190610837929190610c40565b505050505050565b6000546001600160a01b0316331461085657600080fd5b600855565b6000546001600160a01b0316331461087257600080fd5b6001600160a01b03811661088557600080fd5b600080546040516001600160a01b03808516939216917f8be0079c531659141344cd1fd0a4f28419497f9722a3daafe3b4186f6b6457e091a3600080546001600160a01b0319166001600160a01b0392909216919091179055565b60008381526005602052604090205483906001600160a01b0316331461090557600080fd5b60006004858154811061092857634e487b7160e01b600052603260045260246000fd5b9060005260206000209060030201905061094181610bf5565b61094a57600080fd5b60025461095790856110d5565b93506000600285836001015461096d9190610fe8565b6109779190611000565b90507f8d53323b21b9f304546f6d3e61cde865451064d614aa4912f395b755a9d8cad9846040516020016109ab9190610ef7565b6040516020818303038152906040528051906020012014156109ea576109d26064826110d5565b6109dc9082611014565b6109e7906063610fe8565b90505b610a12604051806040016040528060068152602001654e6f4e616d6560d01b81525082610a5f565b61083782610c0e565b60008082604051602001610a2f9190610ef7565b6040516020818303038152906040528051906020012060001c905060025481610a5891906110d5565b9392505050565b60046040518060c00160405280848152602001838152602001600163ffffffff16815260200160035442610a939190610fe8565b63ffffffff168152600060208083018290526040909201819052835460018101855593815281902082518051939460030290910192610ad59284920190610c40565b5060208201516001828101919091556040830151600290920180546060850151608086015160a09096015163ffffffff1990921663ffffffff9586161767ffffffff00000000191664010000000095909116949094029390931769ffff00000000000000001916600160401b61ffff958616021761ffff60501b1916600160501b949093169390930291909117909155600454600091610b7491611014565b600081815260056020908152604080832080546001600160a01b03191633908117909155835260069091528120805492935090610bb083611096565b91905055507f88f026aacbbecc90c18411df4b1185fd8d9be2470f1962f192bf84a27d0704b7818484604051610be893929190610fbf565b60405180910390a1505050565b600201544264010000000090910463ffffffff16111590565b600354610c1b9042610fe8565b8160020160046101000a81548163ffffffff021916908363ffffffff16021790555050565b828054610c4c9061105b565b90600052602060002090601f016020900481019282610c6e5760008555610cb4565b82601f10610c8757805160ff1916838001178555610cb4565b82800160010185558215610cb4579182015b82811115610cb4578251825591602001919060010190610c99565b50610cc0929150610cc4565b5090565b5b80821115610cc05760008155600101610cc5565b8051801515811461060d57600080fd5b600082601f830112610cf9578081fd5b813567ffffffffffffffff80821115610d1457610d14611115565b604051601f8301601f191681016020018281118282101715610d3857610d38611115565b604052828152848301602001861015610d4f578384fd5b82602086016020830137918201602001929092529392505050565b600060208284031215610d7b578081fd5b81356001600160a01b0381168114610a58578182fd5b6000806000806000806000806000806101408b8d031215610db0578586fd5b610db98b610cd9565b9950610dc760208c01610cd9565b985060408b0151975060608b0151965060808b0151955060a08b0151945060c08b0151935060e08b015192506101008b015191506101208b015190509295989b9194979a5092959850565b600060208284031215610e23578081fd5b813567ffffffffffffffff811115610e39578182fd5b610e4584828501610ce9565b949350505050565b600060208284031215610e5e578081fd5b5035919050565b60008060408385031215610e77578182fd5b82359150602083013567ffffffffffffffff811115610e94578182fd5b610ea085828601610ce9565b9150509250929050565b60008060408385031215610ebc578182fd5b50508035926020909101359150565b60008151808452610ee381602086016020860161102b565b601f01601f19169290920160200192915050565b60008251610f0981846020870161102b565b9190910192915050565b6001600160a01b0391909116815260200190565b6020808252825182820181905260009190848201906040850190845b81811015610f5f57835183529284019291840191600101610f43565b50909695505050505050565b600060c08252610f7e60c0830189610ecb565b60208301979097525063ffffffff948516604082015292909316606083015261ffff908116608083015290911660a090910152919050565b90815260200190565b600084825260606020830152610fd86060830185610ecb565b9050826040830152949350505050565b60008219821115610ffb57610ffb6110e9565b500190565b60008261100f5761100f6110ff565b500490565b600082821015611026576110266110e9565b500390565b60005b8381101561104657818101518382015260200161102e565b83811115611055576000848401525b50505050565b60028104600182168061106f57607f821691505b6020821081141561109057634e487b7160e01b600052602260045260246000fd5b50919050565b60006000198214156110aa576110aa6110e9565b5060010190565b600063ffffffff808316818114156110cb576110cb6110e9565b6001019392505050565b6000826110e4576110e46110ff565b500690565b634e487b7160e01b600052601160045260246000fd5b634e487b7160e01b600052601260045260246000fd5b634e487b7160e01b600052604160045260246000fdfea2646970667358221220ef1dbad9043b88f73809ef08d894b6d4815d9305866481a2c3dabe12931bea2764736f6c63430008000033",
    "sourcePath": "d:/VSCode/Project/cryptoZombies_smart_contract/contracts/zombieHelper.sol",
    "compiler": {
        "name": "solc",
        "version": "0.8.0+commit.c7dfd78e"
    },
    "functionHashes": {
        "changeDna(uint256,uint256)": "5faf2880",
        "changeName(uint256,string)": "c39cbef1",
        "createRandomZombie(string)": "7bff0a01",
        "feedOnKitty(uint256,uint256)": "17a7f4cc",
        "getZombiesByOwner(address)": "4412e104",
        "levelUp(uint256)": "0ce90ec2",
        "ownable()": "b38854be",
        "owner()": "8da5cb5b",
        "setKittyContractAddress(address)": "5f4623f1",
        "setLevelUpFee(uint256)": "ccf670f8",
        "transferOwnership(address)": "f2fde38b",
        "withdraw()": "3ccfd60b",
        "zombieToOwner(uint256)": "528b7b8f",
        "zombies(uint256)": "2052465e"
    },
    "gasEstimates": {
        "creation": {
            "codeDepositCost": "889800",
            "executionCost": "infinite",
            "totalCost": "infinite"
        },
        "external": {
            "changeDna(uint256,uint256)": "23844",
            "changeName(uint256,string)": "infinite",
            "createRandomZombie(string)": "infinite",
            "feedOnKitty(uint256,uint256)": "infinite",
            "getZombiesByOwner(address)": "infinite",
            "levelUp(uint256)": "23715",
            "ownable()": "21001",
            "owner()": "1137",
            "setKittyContractAddress(address)": "22065",
            "setLevelUpFee(uint256)": "21130",
            "transferOwnership(address)": "24453",
            "withdraw()": "infinite",
            "zombieToOwner(uint256)": "1280",
            "zombies(uint256)": "infinite"
        }
    }
}