{
    "contractName": "ZombieOwnership",
    "abi": [
        {
            "anonymous": false,
            "inputs": [
                {
                    "indexed": true,
                    "internalType": "address",
                    "name": "_owner",
                    "type": "address"
                },
                {
                    "indexed": true,
                    "internalType": "address",
                    "name": "_approved",
                    "type": "address"
                },
                {
                    "indexed": false,
                    "internalType": "uint256",
                    "name": "_tokenId",
                    "type": "uint256"
                }
            ],
            "name": "Approval",
            "type": "event"
        },
        {
            "anonymous": false,
            "inputs": [
                {
                    "indexed": false,
                    "internalType": "uint256",
                    "name": "zombieId",
                    "type": "uint256"
                },
                {
                    "indexed": false,
                    "internalType": "string",
                    "name": "name",
                    "type": "string"
                },
                {
                    "indexed": false,
                    "internalType": "uint256",
                    "name": "dna",
                    "type": "uint256"
                }
            ],
            "name": "NewZombie",
            "type": "event"
        },
        {
            "anonymous": false,
            "inputs": [
                {
                    "indexed": true,
                    "internalType": "address",
                    "name": "previousOwner",
                    "type": "address"
                },
                {
                    "indexed": true,
                    "internalType": "address",
                    "name": "newOwner",
                    "type": "address"
                }
            ],
            "name": "OwnershipTransferred",
            "type": "event"
        },
        {
            "anonymous": false,
            "inputs": [
                {
                    "indexed": true,
                    "internalType": "address",
                    "name": "_from",
                    "type": "address"
                },
                {
                    "indexed": true,
                    "internalType": "address",
                    "name": "_to",
                    "type": "address"
                },
                {
                    "indexed": false,
                    "internalType": "uint256",
                    "name": "_tokenId",
                    "type": "uint256"
                }
            ],
            "name": "Transfer",
            "type": "event"
        },
        {
            "inputs": [
                {
                    "internalType": "address",
                    "name": "_to",
                    "type": "address"
                },
                {
                    "internalType": "uint256",
                    "name": "_tokenId",
                    "type": "uint256"
                }
            ],
            "name": "approve",
            "outputs": [],
            "stateMutability": "nonpayable",
            "type": "function"
        },
        {
            "inputs": [
                {
                    "internalType": "uint256",
                    "name": "_zombieId",
                    "type": "uint256"
                },
                {
                    "internalType": "uint256",
                    "name": "_targetId",
                    "type": "uint256"
                }
            ],
            "name": "attack",
            "outputs": [],
            "stateMutability": "nonpayable",
            "type": "function"
        },
        {
            "inputs": [
                {
                    "internalType": "address",
                    "name": "_owner",
                    "type": "address"
                }
            ],
            "name": "balanceOf",
            "outputs": [
                {
                    "internalType": "uint256",
                    "name": "_balance",
                    "type": "uint256"
                }
            ],
            "stateMutability": "view",
            "type": "function"
        },
        {
            "inputs": [
                {
                    "internalType": "uint256",
                    "name": "_zombieId",
                    "type": "uint256"
                },
                {
                    "internalType": "uint256",
                    "name": "_newDna",
                    "type": "uint256"
                }
            ],
            "name": "changeDna",
            "outputs": [],
            "stateMutability": "nonpayable",
            "type": "function"
        },
        {
            "inputs": [
                {
                    "internalType": "uint256",
                    "name": "_zombieId",
                    "type": "uint256"
                },
                {
                    "internalType": "string",
                    "name": "_newName",
                    "type": "string"
                }
            ],
            "name": "changeName",
            "outputs": [],
            "stateMutability": "nonpayable",
            "type": "function"
        },
        {
            "inputs": [
                {
                    "internalType": "string",
                    "name": "_name",
                    "type": "string"
                }
            ],
            "name": "createRandomZombie",
            "outputs": [],
            "stateMutability": "nonpayable",
            "type": "function"
        },
        {
            "inputs": [
                {
                    "internalType": "uint256",
                    "name": "_zombieId",
                    "type": "uint256"
                },
                {
                    "internalType": "uint256",
                    "name": "_kittyId",
                    "type": "uint256"
                }
            ],
            "name": "feedOnKitty",
            "outputs": [],
            "stateMutability": "nonpayable",
            "type": "function"
        },
        {
            "inputs": [
                {
                    "internalType": "address",
                    "name": "_owner",
                    "type": "address"
                }
            ],
            "name": "getZombiesByOwner",
            "outputs": [
                {
                    "internalType": "uint256[]",
                    "name": "",
                    "type": "uint256[]"
                }
            ],
            "stateMutability": "view",
            "type": "function"
        },
        {
            "inputs": [
                {
                    "internalType": "uint256",
                    "name": "_zombieId",
                    "type": "uint256"
                }
            ],
            "name": "levelUp",
            "outputs": [],
            "stateMutability": "payable",
            "type": "function"
        },
        {
            "inputs": [],
            "name": "ownable",
            "outputs": [],
            "stateMutability": "nonpayable",
            "type": "function"
        },
        {
            "inputs": [],
            "name": "owner",
            "outputs": [
                {
                    "internalType": "address",
                    "name": "",
                    "type": "address"
                }
            ],
            "stateMutability": "view",
            "type": "function"
        },
        {
            "inputs": [
                {
                    "internalType": "uint256",
                    "name": "_tokenId",
                    "type": "uint256"
                }
            ],
            "name": "ownerOf",
            "outputs": [
                {
                    "internalType": "address",
                    "name": "_owner",
                    "type": "address"
                }
            ],
            "stateMutability": "view",
            "type": "function"
        },
        {
            "inputs": [
                {
                    "internalType": "address",
                    "name": "_address",
                    "type": "address"
                }
            ],
            "name": "setKittyContractAddress",
            "outputs": [],
            "stateMutability": "nonpayable",
            "type": "function"
        },
        {
            "inputs": [
                {
                    "internalType": "uint256",
                    "name": "_fee",
                    "type": "uint256"
                }
            ],
            "name": "setLevelUpFee",
            "outputs": [],
            "stateMutability": "nonpayable",
            "type": "function"
        },
        {
            "inputs": [
                {
                    "internalType": "uint256",
                    "name": "_tokenId",
                    "type": "uint256"
                }
            ],
            "name": "takeOwnership",
            "outputs": [],
            "stateMutability": "nonpayable",
            "type": "function"
        },
        {
            "inputs": [
                {
                    "internalType": "address",
                    "name": "_to",
                    "type": "address"
                },
                {
                    "internalType": "uint256",
                    "name": "_tokenId",
                    "type": "uint256"
                }
            ],
            "name": "transfer",
            "outputs": [],
            "stateMutability": "nonpayable",
            "type": "function"
        },
        {
            "inputs": [
                {
                    "internalType": "address",
                    "name": "newOwner",
                    "type": "address"
                }
            ],
            "name": "transferOwnership",
            "outputs": [],
            "stateMutability": "nonpayable",
            "type": "function"
        },
        {
            "inputs": [],
            "name": "withdraw",
            "outputs": [],
            "stateMutability": "nonpayable",
            "type": "function"
        },
        {
            "inputs": [
                {
                    "internalType": "uint256",
                    "name": "",
                    "type": "uint256"
                }
            ],
            "name": "zombieToOwner",
            "outputs": [
                {
                    "internalType": "address",
                    "name": "",
                    "type": "address"
                }
            ],
            "stateMutability": "view",
            "type": "function"
        },
        {
            "inputs": [
                {
                    "internalType": "uint256",
                    "name": "",
                    "type": "uint256"
                }
            ],
            "name": "zombies",
            "outputs": [
                {
                    "internalType": "string",
                    "name": "name",
                    "type": "string"
                },
                {
                    "internalType": "uint256",
                    "name": "dna",
                    "type": "uint256"
                },
                {
                    "internalType": "uint32",
                    "name": "level",
                    "type": "uint32"
                },
                {
                    "internalType": "uint32",
                    "name": "readyTime",
                    "type": "uint32"
                },
                {
                    "internalType": "uint16",
                    "name": "winCount",
                    "type": "uint16"
                },
                {
                    "internalType": "uint16",
                    "name": "lossCount",
                    "type": "uint16"
                }
            ],
            "stateMutability": "view",
            "type": "function"
        }
    ],
    "bytecode": "6080604052601060018190556200001890600a62000098565b6002556201518060035566038d7ea4c6800060085560006009556046600a553480156200004457600080fd5b50620001a3565b80825b60018086116200005f57506200008f565b8187048211156200007457620000746200018d565b808616156200008257918102915b9490941c9380026200004e565b94509492505050565b6000620000a96000198484620000b0565b9392505050565b600082620000c157506001620000a9565b81620000d057506000620000a9565b8160018114620000e95760028114620000f45762000128565b6001915050620000a9565b60ff8411156200010857620001086200018d565b6001841b9150848211156200012157620001216200018d565b50620000a9565b5060208310610133831016604e8410600b841016171562000160575081810a838111156200015a576200015a6200018d565b620000a9565b6200016f84848460016200004b565b8086048211156200018457620001846200018d565b02949350505050565b634e487b7160e01b600052601160045260246000fd5b61172c80620001b36000396000f3fe60806040526004361061011f5760003560e01c806370a08231116100a0578063b38854be11610064578063b38854be14610325578063c39cbef11461033a578063ccf670f81461035a578063e1fa76381461037a578063f2fde38b1461039a5761011f565b806370a08231146102835780637bff0a01146102b05780638da5cb5b146102d0578063a9059cbb146102e5578063b2e6ceeb146103055761011f565b80634412e104116100e75780634412e104146101c9578063528b7b8f146101f65780635f4623f1146102235780635faf2880146102435780636352211e146102635761011f565b8063095ea7b3146101245780630ce90ec21461014657806317a7f4cc146101595780632052465e146101795780633ccfd60b146101b4575b600080fd5b34801561013057600080fd5b5061014461013f3660046112dc565b6103ba565b005b6101446101543660046113c1565b610449565b34801561016557600080fd5b5061014461017436600461141e565b6104be565b34801561018557600080fd5b506101996101943660046113c1565b61057c565b6040516101ab96959493929190611507565b60405180910390f35b3480156101c057600080fd5b50610144610666565b3480156101d557600080fd5b506101e96101e43660046112c2565b6106ba565b6040516101ab91906114c3565b34801561020257600080fd5b506102166102113660046113c1565b6107b0565b6040516101ab91906114af565b34801561022f57600080fd5b5061014461023e3660046112c2565b6107cb565b34801561024f57600080fd5b5061014461025e36600461141e565b610804565b34801561026f57600080fd5b5061021661027e3660046113c1565b6108b1565b34801561028f57600080fd5b506102a361029e3660046112c2565b6108cc565b6040516101ab9190611552565b3480156102bc57600080fd5b506101446102cb366004611386565b6108e7565b3480156102dc57600080fd5b50610216610933565b3480156102f157600080fd5b506101446103003660046112dc565b610942565b34801561031157600080fd5b506101446103203660046113c1565b610972565b34801561033157600080fd5b506101446109a8565b34801561034657600080fd5b506101446103553660046113d9565b6109bc565b34801561036657600080fd5b506101446103753660046113c1565b610a79565b34801561038657600080fd5b5061014461039536600461141e565b610a95565b3480156103a657600080fd5b506101446103b53660046112c2565b610c93565b60008181526005602052604090205481906001600160a01b031633146103df57600080fd5b6000828152600b60205260409081902080546001600160a01b0319166001600160a01b038616908117909155905133907f8c5be1e5ebec7d5bd14f71427d1e84f3dd0314c0f7b2291e5b200ac8c7c3b9259061043c908690611552565b60405180910390a3505050565b600854341461045757600080fd5b6004818154811061047857634e487b7160e01b600052603260045260246000fd5b600091825260208220600260039092020101805463ffffffff169161049c83611686565b91906101000a81548163ffffffff021916908363ffffffff1602179055505050565b60075460405163e98b7f4d60e01b81526000916001600160a01b03169063e98b7f4d906104ef908590600401611552565b6101406040518083038186803b15801561050857600080fd5b505afa15801561051c573d6000803e3d6000fd5b505050506040513d601f19601f820116820180604052508101906105409190611305565b6040805180820190915260058152646b6974747960d81b6020820152909a5061057799508c98508a97509550610d18945050505050565b505050565b6004818154811061058c57600080fd5b90600052602060002090600302016000915090508060000180546105af9061160e565b80601f01602080910402602001604051908101604052809291908181526020018280546105db9061160e565b80156106285780601f106105fd57610100808354040283529160200191610628565b820191906000526020600020905b81548152906001019060200180831161060b57829003601f168201915b505050600184015460029094015492939263ffffffff8082169350640100000000820416915061ffff600160401b8204811691600160501b90041686565b6000546001600160a01b0316331461067d57600080fd5b600080546040516001600160a01b03909116914780156108fc02929091818181858888f193505050501580156106b7573d6000803e3d6000fd5b50565b6001600160a01b0381166000908152600660205260408120546060919067ffffffffffffffff8111156106fd57634e487b7160e01b600052604160045260246000fd5b604051908082528060200260200182016040528015610726578160200160208202803683370190505b5090506000805b6004548110156107a5576000818152600560205260409020546001600160a01b0386811691161415610793578083838151811061077a57634e487b7160e01b600052603260045260246000fd5b60209081029190910101528161078f8161166b565b9250505b8061079d8161166b565b91505061072d565b50909150505b919050565b6005602052600090815260409020546001600160a01b031681565b6000546001600160a01b031633146107e257600080fd5b600780546001600160a01b0319166001600160a01b0392909216919091179055565b601482816004828154811061082957634e487b7160e01b600052603260045260246000fd5b600091825260209091206002600390920201015463ffffffff16101561084e57600080fd5b60008481526005602052604090205484906001600160a01b0316331461087357600080fd5b836004868154811061089557634e487b7160e01b600052603260045260246000fd5b9060005260206000209060030201600101819055505050505050565b6000908152600560205260409020546001600160a01b031690565b6001600160a01b031660009081526006602052604090205490565b336000908152600660205260409020541561090157600080fd5b600061090c82610e53565b90506109196064826116a0565b61092390826115b0565b905061092f8282610e97565b5050565b6000546001600160a01b031681565b60008181526005602052604090205481906001600160a01b0316331461096757600080fd5b61057733848461102d565b6000818152600b60205260409020546001600160a01b0316331461099557600080fd5b6106b76109a1826108b1565b338361102d565b600080546001600160a01b03191633179055565b60028281600482815481106109e157634e487b7160e01b600052603260045260246000fd5b600091825260209091206002600390920201015463ffffffff161015610a0657600080fd5b60008481526005602052604090205484906001600160a01b03163314610a2b57600080fd5b8360048681548110610a4d57634e487b7160e01b600052603260045260246000fd5b90600052602060002090600302016000019080519060200190610a71929190611181565b505050505050565b6000546001600160a01b03163314610a9057600080fd5b600855565b60008281526005602052604090205482906001600160a01b03163314610aba57600080fd5b600060048481548110610add57634e487b7160e01b600052603260045260246000fd5b90600052602060002090600302019050600060048481548110610b1057634e487b7160e01b600052603260045260246000fd5b906000526020600020906003020190506000610b2c60646110df565b9050600a548111610c1557600283018054600160401b900461ffff16906008610b5483611649565b825461ffff9182166101009390930a92830291909202199091161790555060028301805463ffffffff16906000610b8a83611686565b825463ffffffff9182166101009390930a92830291909202199091161790555060028201805461ffff600160501b9091041690600a610bc883611649565b91906101000a81548161ffff021916908361ffff16021790555050610c10868360010154604051806040016040528060068152602001657a6f6d62696560d01b815250610d18565b610a71565b600283018054600160501b900461ffff1690600a610c3283611649565b91906101000a81548161ffff021916908361ffff1602179055505081600201600881819054906101000a900461ffff1680929190610c6f90611649565b91906101000a81548161ffff021916908361ffff16021790555050610a7183611136565b6000546001600160a01b03163314610caa57600080fd5b6001600160a01b038116610cbd57600080fd5b600080546040516001600160a01b03808516939216917f8be0079c531659141344cd1fd0a4f28419497f9722a3daafe3b4186f6b6457e091a3600080546001600160a01b0319166001600160a01b0392909216919091179055565b60008381526005602052604090205483906001600160a01b03163314610d3d57600080fd5b600060048581548110610d6057634e487b7160e01b600052603260045260246000fd5b90600052602060002090600302019050610d7981611168565b610d8257600080fd5b600254610d8f90856116a0565b935060006002858360010154610da59190611584565b610daf919061159c565b90507f8d53323b21b9f304546f6d3e61cde865451064d614aa4912f395b755a9d8cad984604051602001610de3919061146b565b604051602081830303815290604052805190602001201415610e2257610e0a6064826116a0565b610e1490826115b0565b610e1f906063611584565b90505b610e4a604051806040016040528060068152602001654e6f4e616d6560d01b81525082610e97565b610a7182611136565b60008082604051602001610e67919061146b565b6040516020818303038152906040528051906020012060001c905060025481610e9091906116a0565b9392505050565b60046040518060c00160405280848152602001838152602001600163ffffffff16815260200160035442610ecb9190611584565b63ffffffff168152600060208083018290526040909201819052835460018101855593815281902082518051939460030290910192610f0d9284920190611181565b5060208201516001828101919091556040830151600290920180546060850151608086015160a09096015163ffffffff1990921663ffffffff9586161767ffffffff00000000191664010000000095909116949094029390931769ffff00000000000000001916600160401b61ffff958616021761ffff60501b1916600160501b949093169390930291909117909155600454600091610fac916115b0565b600081815260056020908152604080832080546001600160a01b03191633908117909155835260069091528120805492935090610fe88361166b565b91905055507f88f026aacbbecc90c18411df4b1185fd8d9be2470f1962f192bf84a27d0704b78184846040516110209392919061155b565b60405180910390a1505050565b6001600160a01b03821660009081526006602052604081208054916110518361166b565b90915550506001600160a01b038316600090815260066020526040812080549161107a836115f7565b90915550506000818152600560205260409081902080546001600160a01b0319166001600160a01b038581169182179092559151908516907fddf252ad1be2c89b69c2b068fc378daa952ba7f163c4a11628f55a4df523b3ef9061043c908590611552565b60098054600091826110f08361166b565b919050555081423360095460405160200161110d93929190611487565b6040516020818303038152906040528051906020012060001c61113091906116a0565b92915050565b6003546111439042611584565b8160020160046101000a81548163ffffffff021916908363ffffffff16021790555050565b600201544264010000000090910463ffffffff16111590565b82805461118d9061160e565b90600052602060002090601f0160209004810192826111af57600085556111f5565b82601f106111c857805160ff19168380011785556111f5565b828001600101855582156111f5579182015b828111156111f55782518255916020019190600101906111da565b50611201929150611205565b5090565b5b808211156112015760008155600101611206565b80356001600160a01b03811681146107ab57600080fd5b805180151581146107ab57600080fd5b600082601f830112611251578081fd5b813567ffffffffffffffff8082111561126c5761126c6116e0565b604051601f8301601f191681016020018281118282101715611290576112906116e0565b6040528281528483016020018610156112a7578384fd5b82602086016020830137918201602001929092529392505050565b6000602082840312156112d3578081fd5b610e908261121a565b600080604083850312156112ee578081fd5b6112f78361121a565b946020939093013593505050565b6000806000806000806000806000806101408b8d031215611324578586fd5b61132d8b611231565b995061133b60208c01611231565b985060408b0151975060608b0151965060808b0151955060a08b0151945060c08b0151935060e08b015192506101008b015191506101208b015190509295989b9194979a5092959850565b600060208284031215611397578081fd5b813567ffffffffffffffff8111156113ad578182fd5b6113b984828501611241565b949350505050565b6000602082840312156113d2578081fd5b5035919050565b600080604083850312156113eb578182fd5b82359150602083013567ffffffffffffffff811115611408578182fd5b61141485828601611241565b9150509250929050565b60008060408385031215611430578182fd5b50508035926020909101359150565b600081518084526114578160208601602086016115c7565b601f01601f19169290920160200192915050565b6000825161147d8184602087016115c7565b9190910192915050565b92835260609190911b6bffffffffffffffffffffffff19166020830152603482015260540190565b6001600160a01b0391909116815260200190565b6020808252825182820181905260009190848201906040850190845b818110156114fb578351835292840192918401916001016114df565b50909695505050505050565b600060c0825261151a60c083018961143f565b60208301979097525063ffffffff948516604082015292909316606083015261ffff908116608083015290911660a090910152919050565b90815260200190565b600084825260606020830152611574606083018561143f565b9050826040830152949350505050565b60008219821115611597576115976116b4565b500190565b6000826115ab576115ab6116ca565b500490565b6000828210156115c2576115c26116b4565b500390565b60005b838110156115e25781810151838201526020016115ca565b838111156115f1576000848401525b50505050565b600081611606576116066116b4565b506000190190565b60028104600182168061162257607f821691505b6020821081141561164357634e487b7160e01b600052602260045260246000fd5b50919050565b600061ffff80831681811415611661576116616116b4565b6001019392505050565b600060001982141561167f5761167f6116b4565b5060010190565b600063ffffffff80831681811415611661576116616116b4565b6000826116af576116af6116ca565b500690565b634e487b7160e01b600052601160045260246000fd5b634e487b7160e01b600052601260045260246000fd5b634e487b7160e01b600052604160045260246000fdfea2646970667358221220e733ffa0313d5d9cf4061c2e42a551a3bd3bf9135ba98c964f1db6d7f226066564736f6c63430008000033",
    "sourcePath": "d:/VSCode/Project/cryptoZombies_smart_contract/contracts/zombieOwnership.sol",
    "compiler": {
        "name": "solc",
        "version": "0.8.0+commit.c7dfd78e"
    },
    "functionHashes": {
        "approve(address,uint256)": "095ea7b3",
        "attack(uint256,uint256)": "e1fa7638",
        "balanceOf(address)": "70a08231",
        "changeDna(uint256,uint256)": "5faf2880",
        "changeName(uint256,string)": "c39cbef1",
        "createRandomZombie(string)": "7bff0a01",
        "feedOnKitty(uint256,uint256)": "17a7f4cc",
        "getZombiesByOwner(address)": "4412e104",
        "levelUp(uint256)": "0ce90ec2",
        "ownable()": "b38854be",
        "owner()": "8da5cb5b",
        "ownerOf(uint256)": "6352211e",
        "setKittyContractAddress(address)": "5f4623f1",
        "setLevelUpFee(uint256)": "ccf670f8",
        "takeOwnership(uint256)": "b2e6ceeb",
        "transfer(address,uint256)": "a9059cbb",
        "transferOwnership(address)": "f2fde38b",
        "withdraw()": "3ccfd60b",
        "zombieToOwner(uint256)": "528b7b8f",
        "zombies(uint256)": "2052465e"
    },
    "gasEstimates": {
        "creation": {
            "codeDepositCost": "1186400",
            "executionCost": "infinite",
            "totalCost": "infinite"
        },
        "external": {
            "approve(address,uint256)": "24048",
            "attack(uint256,uint256)": "infinite",
            "balanceOf(address)": "1293",
            "changeDna(uint256,uint256)": "23910",
            "changeName(uint256,string)": "infinite",
            "createRandomZombie(string)": "infinite",
            "feedOnKitty(uint256,uint256)": "infinite",
            "getZombiesByOwner(address)": "infinite",
            "levelUp(uint256)": "23737",
            "ownable()": "21001",
            "owner()": "1137",
            "ownerOf(uint256)": "1324",
            "setKittyContractAddress(address)": "22078",
            "setLevelUpFee(uint256)": "21130",
            "takeOwnership(uint256)": "66928",
            "transfer(address,uint256)": "66104",
            "transferOwnership(address)": "24510",
            "withdraw()": "infinite",
            "zombieToOwner(uint256)": "1258",
            "zombies(uint256)": "infinite"
        },
        "internal": {
            "_transfer(address,address,uint256)": "infinite"
        }
    }
}