{
    "contractName": "ZombieAttack",
    "abi": [
        {
            "anonymous": false,
            "inputs": [
                {
                    "indexed": false,
                    "internalType": "uint256",
                    "name": "zombieId",
                    "type": "uint256"
                },
                {
                    "indexed": false,
                    "internalType": "string",
                    "name": "name",
                    "type": "string"
                },
                {
                    "indexed": false,
                    "internalType": "uint256",
                    "name": "dna",
                    "type": "uint256"
                }
            ],
            "name": "NewZombie",
            "type": "event"
        },
        {
            "anonymous": false,
            "inputs": [
                {
                    "indexed": true,
                    "internalType": "address",
                    "name": "previousOwner",
                    "type": "address"
                },
                {
                    "indexed": true,
                    "internalType": "address",
                    "name": "newOwner",
                    "type": "address"
                }
            ],
            "name": "OwnershipTransferred",
            "type": "event"
        },
        {
            "inputs": [
                {
                    "internalType": "uint256",
                    "name": "_zombieId",
                    "type": "uint256"
                },
                {
                    "internalType": "uint256",
                    "name": "_targetId",
                    "type": "uint256"
                }
            ],
            "name": "attack",
            "outputs": [],
            "stateMutability": "nonpayable",
            "type": "function"
        },
        {
            "inputs": [
                {
                    "internalType": "uint256",
                    "name": "_zombieId",
                    "type": "uint256"
                },
                {
                    "internalType": "uint256",
                    "name": "_newDna",
                    "type": "uint256"
                }
            ],
            "name": "changeDna",
            "outputs": [],
            "stateMutability": "nonpayable",
            "type": "function"
        },
        {
            "inputs": [
                {
                    "internalType": "uint256",
                    "name": "_zombieId",
                    "type": "uint256"
                },
                {
                    "internalType": "string",
                    "name": "_newName",
                    "type": "string"
                }
            ],
            "name": "changeName",
            "outputs": [],
            "stateMutability": "nonpayable",
            "type": "function"
        },
        {
            "inputs": [
                {
                    "internalType": "string",
                    "name": "_name",
                    "type": "string"
                }
            ],
            "name": "createRandomZombie",
            "outputs": [],
            "stateMutability": "nonpayable",
            "type": "function"
        },
        {
            "inputs": [
                {
                    "internalType": "uint256",
                    "name": "_zombieId",
                    "type": "uint256"
                },
                {
                    "internalType": "uint256",
                    "name": "_kittyId",
                    "type": "uint256"
                }
            ],
            "name": "feedOnKitty",
            "outputs": [],
            "stateMutability": "nonpayable",
            "type": "function"
        },
        {
            "inputs": [
                {
                    "internalType": "address",
                    "name": "_owner",
                    "type": "address"
                }
            ],
            "name": "getZombiesByOwner",
            "outputs": [
                {
                    "internalType": "uint256[]",
                    "name": "",
                    "type": "uint256[]"
                }
            ],
            "stateMutability": "view",
            "type": "function"
        },
        {
            "inputs": [
                {
                    "internalType": "uint256",
                    "name": "_zombieId",
                    "type": "uint256"
                }
            ],
            "name": "levelUp",
            "outputs": [],
            "stateMutability": "payable",
            "type": "function"
        },
        {
            "inputs": [],
            "name": "ownable",
            "outputs": [],
            "stateMutability": "nonpayable",
            "type": "function"
        },
        {
            "inputs": [],
            "name": "owner",
            "outputs": [
                {
                    "internalType": "address",
                    "name": "",
                    "type": "address"
                }
            ],
            "stateMutability": "view",
            "type": "function"
        },
        {
            "inputs": [
                {
                    "internalType": "address",
                    "name": "_address",
                    "type": "address"
                }
            ],
            "name": "setKittyContractAddress",
            "outputs": [],
            "stateMutability": "nonpayable",
            "type": "function"
        },
        {
            "inputs": [
                {
                    "internalType": "uint256",
                    "name": "_fee",
                    "type": "uint256"
                }
            ],
            "name": "setLevelUpFee",
            "outputs": [],
            "stateMutability": "nonpayable",
            "type": "function"
        },
        {
            "inputs": [
                {
                    "internalType": "address",
                    "name": "newOwner",
                    "type": "address"
                }
            ],
            "name": "transferOwnership",
            "outputs": [],
            "stateMutability": "nonpayable",
            "type": "function"
        },
        {
            "inputs": [],
            "name": "withdraw",
            "outputs": [],
            "stateMutability": "nonpayable",
            "type": "function"
        },
        {
            "inputs": [
                {
                    "internalType": "uint256",
                    "name": "",
                    "type": "uint256"
                }
            ],
            "name": "zombieToOwner",
            "outputs": [
                {
                    "internalType": "address",
                    "name": "",
                    "type": "address"
                }
            ],
            "stateMutability": "view",
            "type": "function"
        },
        {
            "inputs": [
                {
                    "internalType": "uint256",
                    "name": "",
                    "type": "uint256"
                }
            ],
            "name": "zombies",
            "outputs": [
                {
                    "internalType": "string",
                    "name": "name",
                    "type": "string"
                },
                {
                    "internalType": "uint256",
                    "name": "dna",
                    "type": "uint256"
                },
                {
                    "internalType": "uint32",
                    "name": "level",
                    "type": "uint32"
                },
                {
                    "internalType": "uint32",
                    "name": "readyTime",
                    "type": "uint32"
                },
                {
                    "internalType": "uint16",
                    "name": "winCount",
                    "type": "uint16"
                },
                {
                    "internalType": "uint16",
                    "name": "lossCount",
                    "type": "uint16"
                }
            ],
            "stateMutability": "view",
            "type": "function"
        }
    ],
    "bytecode": "6080604052601060018190556200001890600a62000098565b6002556201518060035566038d7ea4c6800060085560006009556046600a553480156200004457600080fd5b50620001a3565b80825b60018086116200005f57506200008f565b8187048211156200007457620000746200018d565b808616156200008257918102915b9490941c9380026200004e565b94509492505050565b6000620000a96000198484620000b0565b9392505050565b600082620000c157506001620000a9565b81620000d057506000620000a9565b8160018114620000e95760028114620000f45762000128565b6001915050620000a9565b60ff8411156200010857620001086200018d565b6001841b9150848211156200012157620001216200018d565b50620000a9565b5060208310610133831016604e8410600b841016171562000160575081810a838111156200015a576200015a6200018d565b620000a9565b6200016f84848460016200004b565b8086048211156200018457620001846200018d565b02949350505050565b634e487b7160e01b600052601160045260246000fd5b61142180620001b36000396000f3fe6080604052600436106100e85760003560e01c80635faf28801161008a578063c39cbef111610059578063c39cbef114610256578063ccf670f814610276578063e1fa763814610296578063f2fde38b146102b6576100e8565b80635faf2880146101ec5780637bff0a011461020c5780638da5cb5b1461022c578063b38854be14610241576100e8565b80633ccfd60b116100c65780633ccfd60b1461015d5780634412e10414610172578063528b7b8f1461019f5780635f4623f1146101cc576100e8565b80630ce90ec2146100ed57806317a7f4cc146101025780632052465e14610122575b600080fd5b6101006100fb3660046110cd565b6102d6565b005b34801561010e57600080fd5b5061010061011d36600461112a565b61034b565b34801561012e57600080fd5b5061014261013d3660046110cd565b610409565b60405161015496959493929190611213565b60405180910390f35b34801561016957600080fd5b506101006104f3565b34801561017e57600080fd5b5061019261018d366004610fea565b610547565b60405161015491906111cf565b3480156101ab57600080fd5b506101bf6101ba3660046110cd565b61063d565b60405161015491906111bb565b3480156101d857600080fd5b506101006101e7366004610fea565b610658565b3480156101f857600080fd5b5061010061020736600461112a565b610691565b34801561021857600080fd5b50610100610227366004611092565b61073e565b34801561023857600080fd5b506101bf61078a565b34801561024d57600080fd5b50610100610799565b34801561026257600080fd5b506101006102713660046110e5565b6107ad565b34801561028257600080fd5b506101006102913660046110cd565b61086a565b3480156102a257600080fd5b506101006102b136600461112a565b610886565b3480156102c257600080fd5b506101006102d1366004610fea565b610a84565b60085434146102e457600080fd5b6004818154811061030557634e487b7160e01b600052603260045260246000fd5b600091825260208220600260039092020101805463ffffffff16916103298361137b565b91906101000a81548163ffffffff021916908363ffffffff1602179055505050565b60075460405163e98b7f4d60e01b81526000916001600160a01b03169063e98b7f4d9061037c90859060040161125e565b6101406040518083038186803b15801561039557600080fd5b505afa1580156103a9573d6000803e3d6000fd5b505050506040513d601f19601f820116820180604052508101906103cd9190611011565b6040805180820190915260058152646b6974747960d81b6020820152909a5061040499508c98508a97509550610b09945050505050565b505050565b6004818154811061041957600080fd5b906000526020600020906003020160009150905080600001805461043c90611303565b80601f016020809104026020016040519081016040528092919081815260200182805461046890611303565b80156104b55780601f1061048a576101008083540402835291602001916104b5565b820191906000526020600020905b81548152906001019060200180831161049857829003601f168201915b505050600184015460029094015492939263ffffffff8082169350640100000000820416915061ffff600160401b8204811691600160501b90041686565b6000546001600160a01b0316331461050a57600080fd5b600080546040516001600160a01b03909116914780156108fc02929091818181858888f19350505050158015610544573d6000803e3d6000fd5b50565b6001600160a01b0381166000908152600660205260408120546060919067ffffffffffffffff81111561058a57634e487b7160e01b600052604160045260246000fd5b6040519080825280602002602001820160405280156105b3578160200160208202803683370190505b5090506000805b600454811015610632576000818152600560205260409020546001600160a01b0386811691161415610620578083838151811061060757634e487b7160e01b600052603260045260246000fd5b60209081029190910101528161061c81611360565b9250505b8061062a81611360565b9150506105ba565b50909150505b919050565b6005602052600090815260409020546001600160a01b031681565b6000546001600160a01b0316331461066f57600080fd5b600780546001600160a01b0319166001600160a01b0392909216919091179055565b60148281600482815481106106b657634e487b7160e01b600052603260045260246000fd5b600091825260209091206002600390920201015463ffffffff1610156106db57600080fd5b60008481526005602052604090205484906001600160a01b0316331461070057600080fd5b836004868154811061072257634e487b7160e01b600052603260045260246000fd5b9060005260206000209060030201600101819055505050505050565b336000908152600660205260409020541561075857600080fd5b600061076382610c44565b9050610770606482611395565b61077a90826112bc565b90506107868282610c88565b5050565b6000546001600160a01b031681565b600080546001600160a01b03191633179055565b60028281600482815481106107d257634e487b7160e01b600052603260045260246000fd5b600091825260209091206002600390920201015463ffffffff1610156107f757600080fd5b60008481526005602052604090205484906001600160a01b0316331461081c57600080fd5b836004868154811061083e57634e487b7160e01b600052603260045260246000fd5b90600052602060002090600302016000019080519060200190610862929190610ec0565b505050505050565b6000546001600160a01b0316331461088157600080fd5b600855565b60008281526005602052604090205482906001600160a01b031633146108ab57600080fd5b6000600484815481106108ce57634e487b7160e01b600052603260045260246000fd5b9060005260206000209060030201905060006004848154811061090157634e487b7160e01b600052603260045260246000fd5b90600052602060002090600302019050600061091d6064610e1e565b9050600a548111610a0657600283018054600160401b900461ffff169060086109458361133e565b825461ffff9182166101009390930a92830291909202199091161790555060028301805463ffffffff1690600061097b8361137b565b825463ffffffff9182166101009390930a92830291909202199091161790555060028201805461ffff600160501b9091041690600a6109b98361133e565b91906101000a81548161ffff021916908361ffff16021790555050610a01868360010154604051806040016040528060068152602001657a6f6d62696560d01b815250610b09565b610862565b600283018054600160501b900461ffff1690600a610a238361133e565b91906101000a81548161ffff021916908361ffff1602179055505081600201600881819054906101000a900461ffff1680929190610a609061133e565b91906101000a81548161ffff021916908361ffff1602179055505061086283610e75565b6000546001600160a01b03163314610a9b57600080fd5b6001600160a01b038116610aae57600080fd5b600080546040516001600160a01b03808516939216917f8be0079c531659141344cd1fd0a4f28419497f9722a3daafe3b4186f6b6457e091a3600080546001600160a01b0319166001600160a01b0392909216919091179055565b60008381526005602052604090205483906001600160a01b03163314610b2e57600080fd5b600060048581548110610b5157634e487b7160e01b600052603260045260246000fd5b90600052602060002090600302019050610b6a81610ea7565b610b7357600080fd5b600254610b809085611395565b935060006002858360010154610b969190611290565b610ba091906112a8565b90507f8d53323b21b9f304546f6d3e61cde865451064d614aa4912f395b755a9d8cad984604051602001610bd49190611177565b604051602081830303815290604052805190602001201415610c1357610bfb606482611395565b610c0590826112bc565b610c10906063611290565b90505b610c3b604051806040016040528060068152602001654e6f4e616d6560d01b81525082610c88565b61086282610e75565b60008082604051602001610c589190611177565b6040516020818303038152906040528051906020012060001c905060025481610c819190611395565b9392505050565b60046040518060c00160405280848152602001838152602001600163ffffffff16815260200160035442610cbc9190611290565b63ffffffff168152600060208083018290526040909201819052835460018101855593815281902082518051939460030290910192610cfe9284920190610ec0565b5060208201516001828101919091556040830151600290920180546060850151608086015160a09096015163ffffffff1990921663ffffffff9586161767ffffffff00000000191664010000000095909116949094029390931769ffff00000000000000001916600160401b61ffff958616021761ffff60501b1916600160501b949093169390930291909117909155600454600091610d9d916112bc565b600081815260056020908152604080832080546001600160a01b03191633908117909155835260069091528120805492935090610dd983611360565b91905055507f88f026aacbbecc90c18411df4b1185fd8d9be2470f1962f192bf84a27d0704b7818484604051610e1193929190611267565b60405180910390a1505050565b6009805460009182610e2f83611360565b9190505550814233600954604051602001610e4c93929190611193565b6040516020818303038152906040528051906020012060001c610e6f9190611395565b92915050565b600354610e829042611290565b8160020160046101000a81548163ffffffff021916908363ffffffff16021790555050565b600201544264010000000090910463ffffffff16111590565b828054610ecc90611303565b90600052602060002090601f016020900481019282610eee5760008555610f34565b82601f10610f0757805160ff1916838001178555610f34565b82800160010185558215610f34579182015b82811115610f34578251825591602001919060010190610f19565b50610f40929150610f44565b5090565b5b80821115610f405760008155600101610f45565b8051801515811461063857600080fd5b600082601f830112610f79578081fd5b813567ffffffffffffffff80821115610f9457610f946113d5565b604051601f8301601f191681016020018281118282101715610fb857610fb86113d5565b604052828152848301602001861015610fcf578384fd5b82602086016020830137918201602001929092529392505050565b600060208284031215610ffb578081fd5b81356001600160a01b0381168114610c81578182fd5b6000806000806000806000806000806101408b8d031215611030578586fd5b6110398b610f59565b995061104760208c01610f59565b985060408b0151975060608b0151965060808b0151955060a08b0151945060c08b0151935060e08b015192506101008b015191506101208b015190509295989b9194979a5092959850565b6000602082840312156110a3578081fd5b813567ffffffffffffffff8111156110b9578182fd5b6110c584828501610f69565b949350505050565b6000602082840312156110de578081fd5b5035919050565b600080604083850312156110f7578182fd5b82359150602083013567ffffffffffffffff811115611114578182fd5b61112085828601610f69565b9150509250929050565b6000806040838503121561113c578182fd5b50508035926020909101359150565b600081518084526111638160208601602086016112d3565b601f01601f19169290920160200192915050565b600082516111898184602087016112d3565b9190910192915050565b92835260609190911b6bffffffffffffffffffffffff19166020830152603482015260540190565b6001600160a01b0391909116815260200190565b6020808252825182820181905260009190848201906040850190845b81811015611207578351835292840192918401916001016111eb565b50909695505050505050565b600060c0825261122660c083018961114b565b60208301979097525063ffffffff948516604082015292909316606083015261ffff908116608083015290911660a090910152919050565b90815260200190565b600084825260606020830152611280606083018561114b565b9050826040830152949350505050565b600082198211156112a3576112a36113a9565b500190565b6000826112b7576112b76113bf565b500490565b6000828210156112ce576112ce6113a9565b500390565b60005b838110156112ee5781810151838201526020016112d6565b838111156112fd576000848401525b50505050565b60028104600182168061131757607f821691505b6020821081141561133857634e487b7160e01b600052602260045260246000fd5b50919050565b600061ffff80831681811415611356576113566113a9565b6001019392505050565b6000600019821415611374576113746113a9565b5060010190565b600063ffffffff80831681811415611356576113566113a9565b6000826113a4576113a46113bf565b500690565b634e487b7160e01b600052601160045260246000fd5b634e487b7160e01b600052601260045260246000fd5b634e487b7160e01b600052604160045260246000fdfea264697066735822122009331647b5703bc48710874b59a54beb54eed32d4c6e4e2af88c0c1c0f9deba964736f6c63430008000033",
    "sourcePath": "d:/VSCode/Project/cryptoZombies_smart_contract/contracts/zombieAttack.sol",
    "compiler": {
        "name": "solc",
        "version": "0.8.0+commit.c7dfd78e"
    },
    "functionHashes": {
        "attack(uint256,uint256)": "e1fa7638",
        "changeDna(uint256,uint256)": "5faf2880",
        "changeName(uint256,string)": "c39cbef1",
        "createRandomZombie(string)": "7bff0a01",
        "feedOnKitty(uint256,uint256)": "17a7f4cc",
        "getZombiesByOwner(address)": "4412e104",
        "levelUp(uint256)": "0ce90ec2",
        "ownable()": "b38854be",
        "owner()": "8da5cb5b",
        "setKittyContractAddress(address)": "5f4623f1",
        "setLevelUpFee(uint256)": "ccf670f8",
        "transferOwnership(address)": "f2fde38b",
        "withdraw()": "3ccfd60b",
        "zombieToOwner(uint256)": "528b7b8f",
        "zombies(uint256)": "2052465e"
    },
    "gasEstimates": {
        "creation": {
            "codeDepositCost": "1030600",
            "executionCost": "infinite",
            "totalCost": "infinite"
        },
        "external": {
            "attack(uint256,uint256)": "infinite",
            "changeDna(uint256,uint256)": "23844",
            "changeName(uint256,string)": "infinite",
            "createRandomZombie(string)": "infinite",
            "feedOnKitty(uint256,uint256)": "infinite",
            "getZombiesByOwner(address)": "infinite",
            "levelUp(uint256)": "23715",
            "ownable()": "21068",
            "owner()": "1137",
            "setKittyContractAddress(address)": "22065",
            "setLevelUpFee(uint256)": "21108",
            "transferOwnership(address)": "24453",
            "withdraw()": "infinite",
            "zombieToOwner(uint256)": "1280",
            "zombies(uint256)": "infinite"
        },
        "internal": {
            "randMod(uint256)": "infinite"
        }
    }
}